{"abi":[{"type":"function","name":"main","inputs":[{"name":"unverifiedEmail","type":"tuple","internalType":"struct UnverifiedEmail","components":[{"name":"email","type":"string","internalType":"string"},{"name":"dnsRecord","type":"tuple","internalType":"struct DnsRecord","components":[{"name":"name","type":"string","internalType":"string"},{"name":"recordType","type":"uint8","internalType":"uint8"},{"name":"data","type":"string","internalType":"string"},{"name":"ttl","type":"uint64","internalType":"uint64"}]},{"name":"verificationData","type":"tuple","internalType":"struct VerificationData","components":[{"name":"validUntil","type":"uint64","internalType":"uint64"},{"name":"signature","type":"bytes","internalType":"bytes"},{"name":"pubKey","type":"bytes","internalType":"bytes"}]}]},{"name":"sender","type":"address","internalType":"address"}],"outputs":[{"name":"","type":"tuple","internalType":"struct Proof","components":[{"name":"seal","type":"tuple","internalType":"struct Seal","components":[{"name":"verifierSelector","type":"bytes4","internalType":"bytes4"},{"name":"seal","type":"bytes32[8]","internalType":"bytes32[8]"},{"name":"mode","type":"uint8","internalType":"enum ProofMode"}]},{"name":"callGuestId","type":"bytes32","internalType":"bytes32"},{"name":"length","type":"uint256","internalType":"uint256"},{"name":"callAssumptions","type":"tuple","internalType":"struct CallAssumptions","components":[{"name":"proverContractAddress","type":"address","internalType":"address"},{"name":"functionSelector","type":"bytes4","internalType":"bytes4"},{"name":"settleChainId","type":"uint256","internalType":"uint256"},{"name":"settleBlockNumber","type":"uint256","internalType":"uint256"},{"name":"settleBlockHash","type":"bytes32","internalType":"bytes32"}]}]},{"name":"","type":"bytes32","internalType":"bytes32"},{"name":"","type":"string","internalType":"string"},{"name":"","type":"address","internalType":"address"}],"stateMutability":"view"},{"type":"function","name":"proof","inputs":[],"outputs":[{"name":"","type":"tuple","internalType":"struct Proof","components":[{"name":"seal","type":"tuple","internalType":"struct Seal","components":[{"name":"verifierSelector","type":"bytes4","internalType":"bytes4"},{"name":"seal","type":"bytes32[8]","internalType":"bytes32[8]"},{"name":"mode","type":"uint8","internalType":"enum ProofMode"}]},{"name":"callGuestId","type":"bytes32","internalType":"bytes32"},{"name":"length","type":"uint256","internalType":"uint256"},{"name":"callAssumptions","type":"tuple","internalType":"struct CallAssumptions","components":[{"name":"proverContractAddress","type":"address","internalType":"address"},{"name":"functionSelector","type":"bytes4","internalType":"bytes4"},{"name":"settleChainId","type":"uint256","internalType":"uint256"},{"name":"settleBlockNumber","type":"uint256","internalType":"uint256"},{"name":"settleBlockHash","type":"bytes32","internalType":"bytes32"}]}]}],"stateMutability":"pure"},{"type":"function","name":"setBlock","inputs":[{"name":"blockNo","type":"uint256","internalType":"uint256"}],"outputs":[],"stateMutability":"nonpayable"},{"type":"function","name":"setChain","inputs":[{"name":"chainId","type":"uint256","internalType":"uint256"},{"name":"blockNo","type":"uint256","internalType":"uint256"}],"outputs":[],"stateMutability":"nonpayable"},{"type":"function","name":"stringToAddress","inputs":[{"name":"str","type":"string","internalType":"string"}],"outputs":[{"name":"","type":"address","internalType":"address"}],"stateMutability":"pure"},{"type":"error","name":"FailedInnerCall","inputs":[]}],"bytecode":{"object":"0x6080604052348015600e575f5ffd5b5061296e8061001c5f395ff3fe608060405234801561000f575f5ffd5b5060043610610055575f3560e01c806315706fdf146100595780637d20e6061461008957806387cea3ae146100bc578063faf924cf146100d8578063ffbc5638146100f6575b5f5ffd5b610073600480360381019061006e919061120b565b610112565b6040516100809190611291565b60405180910390f35b6100a3600480360381019061009e91906112f6565b6102b4565b6040516100b39493929190611640565b60405180910390f35b6100d660048036038101906100d191906116b8565b61052d565b005b6100e061060a565b6040516100ed91906116e3565b60405180910390f35b610110600480360381019061010b91906116fd565b61061f565b005b5f5f829050602a81511461015b576040517f08c379a000000000000000000000000000000000000000000000000000000000815260040161015290611785565b60405180910390fd5b5f601467ffffffffffffffff811115610177576101766110e7565b5b6040519080825280601f01601f1916602001820160405280156101a95781602001600182028036833780820191505090505b5090505f5f90505b601481101561029d576101f8836002836101cb91906117d0565b60036101d79190611811565b815181106101e8576101e7611844565b5b602001015160f81c60f81b6106ff565b60106102388560028561020b91906117d0565b60026102179190611811565b8151811061022857610227611844565b5b602001015160f81c60f81b6106ff565b610242919061187d565b61024c91906118b9565b60f81b82828151811061026257610261611844565b5b60200101907effffffffffffffffffffffffffffffffffffffffffffffffffffffffffffff191690815f1a90535080806001019150506101b1565b50806102a890611951565b60601c92505050919050565b6102bc610f8c565b5f60605f5f6102d3876102ce90611cbf565b610939565b90505f61030460405180606001604052806027815260200161291260279139835f0151610c8e90919063ffffffff16565b90505f610336604051806060016040528060278152602001612912602791398460200151610c8e90919063ffffffff16565b9050600282511461037c576040517f08c379a000000000000000000000000000000000000000000000000000000000815260040161037390611d1b565b60405180910390fd5b60028151146103c0576040517f08c379a00000000000000000000000000000000000000000000000000000000081526004016103b790611d83565b60405180910390fd5b5f826001815181106103d5576103d4611844565b5b6020026020010151511161041e576040517f08c379a000000000000000000000000000000000000000000000000000000000815260040161041590611deb565b60405180910390fd5b5f8160018151811061043357610432611844565b5b6020026020010151511161047c576040517f08c379a000000000000000000000000000000000000000000000000000000000815260040161047390611e53565b60405180910390fd5b61048461060a565b6002845f01518560200151426040516020016104a293929190611ecb565b6040516020818303038152906040526040516104be9190611f39565b602060405180830381855afa1580156104d9573d5f5f3e3d5ffd5b5050506040513d601f19601f820116820180604052508101906104fc9190611f79565b836001815181106105105761050f611844565b5b60200260200101518a965096509650965050505092959194509250565b7f2ae215ce9fde588adfdea92976dc9aa45aa006a0f63942d8f9f21bd4537972a35f1c73ffffffffffffffffffffffffffffffffffffffff166387cea3ae826040518263ffffffff1660e01b81526004016105889190611fb3565b6020604051808303815f875af11580156105a4573d5f5f3e3d5ffd5b505050506040513d601f19601f820116820180604052508101906105c89190612001565b610607576040517f08c379a00000000000000000000000000000000000000000000000000000000081526004016105fe90612076565b60405180910390fd5b50565b610612610f8c565b61061a610d75565b905090565b7f2ae215ce9fde588adfdea92976dc9aa45aa006a0f63942d8f9f21bd4537972a35f1c73ffffffffffffffffffffffffffffffffffffffff1663ffbc563883836040518363ffffffff1660e01b815260040161067c929190612094565b6020604051808303815f875af1158015610698573d5f5f3e3d5ffd5b505050506040513d601f19601f820116820180604052508101906106bc9190612001565b6106fb576040517f08c379a00000000000000000000000000000000000000000000000000000000081526004016106f290612076565b60405180910390fd5b5050565b5f5f8260f81c90507f300000000000000000000000000000000000000000000000000000000000000060f81c60ff168160ff161015801561076957507f390000000000000000000000000000000000000000000000000000000000000060f81c60ff168160ff1611155b156107a5577f300000000000000000000000000000000000000000000000000000000000000060f81c8161079d91906120bb565b915050610934565b7f610000000000000000000000000000000000000000000000000000000000000060f81c60ff168160ff161015801561080757507f660000000000000000000000000000000000000000000000000000000000000060f81c60ff168160ff1611155b1561084f577f610000000000000000000000000000000000000000000000000000000000000060f81c81600a61083d91906118b9565b61084791906120bb565b915050610934565b7f410000000000000000000000000000000000000000000000000000000000000060f81c60ff168160ff16101580156108b157507f460000000000000000000000000000000000000000000000000000000000000060f81c60ff168160ff1611155b156108f9577f410000000000000000000000000000000000000000000000000000000000000060f81c81600a6108e791906118b9565b6108f191906120bb565b915050610934565b6040517f08c379a000000000000000000000000000000000000000000000000000000000815260040161092b90612139565b60405180910390fd5b919050565b610941610fbe565b4282604001515f015167ffffffffffffffff1611610994576040517f08c379a000000000000000000000000000000000000000000000000000000000815260040161098b906121c7565b60405180910390fd5b61099c610d8c565b15610a19577fc16646301c7615357b8f8ee125956b0e5fbf972fa2a0c26feb1f1ae75d04103f5f1b8260400151604001518051906020012014610a14576040517f08c379a0000000000000000000000000000000000000000000000000000000008152600401610a0b9061222f565b60405180910390fd5b610bb9565b610a21610da9565b15610af157610a2e610e11565b73ffffffffffffffffffffffffffffffffffffffff166381e4c9a38360400151604001516040518263ffffffff1660e01b8152600401610a6e9190612295565b602060405180830381865afa158015610a89573d5f5f3e3d5ffd5b505050506040513d601f19601f82011682018060405250810190610aad9190612001565b610aec576040517f08c379a0000000000000000000000000000000000000000000000000000000008152600401610ae3906122ff565b60405180910390fd5b610bb8565b610af9610e2c565b73ffffffffffffffffffffffffffffffffffffffff166381e4c9a38360400151604001516040518263ffffffff1660e01b8152600401610b399190612295565b602060405180830381865afa158015610b54573d5f5f3e3d5ffd5b505050506040513d601f19601f82011682018060405250810190610b789190612001565b610bb7576040517f08c379a0000000000000000000000000000000000000000000000000000000008152600401610bae906122ff565b60405180910390fd5b5b5b5f5f600173f4e4fdca9d5d55e64525e314391996a15f7ec600610bdc919061231d565b73ffffffffffffffffffffffffffffffffffffffff1684604051602001610c039190612528565b604051602081830303815290604052604051610c1f9190611f39565b5f60405180830381855afa9150503d805f8114610c57576040519150601f19603f3d011682016040523d82523d5f602084013e610c5c565b606091505b5091509150610c6b8282610e47565b505f81806020019051810190610c81919061269b565b9050809350505050919050565b60605f5f601173f4e4fdca9d5d55e64525e314391996a15f7ec600610cb3919061231d565b73ffffffffffffffffffffffffffffffffffffffff16604051806040016040528087815260200186815250604051602001610cee9190612791565b604051602081830303815290604052604051610d0a9190611f39565b5f60405180830381855afa9150503d805f8114610d42576040519150601f19603f3d011682016040523d82523d5f602084013e610d47565b606091505b5091509150610d568282610e47565b5080806020019051810190610d6b9190612893565b9250505092915050565b610d7d610f8c565b610d85610f8c565b8091505090565b5f610d95610e6b565b80610da45750610da3610e83565b5b905090565b5f6001461480610db95750600a46145b80610dc45750608946145b80610dd0575061014446145b80610ddc57506101e046145b80610de8575061210546145b80610df4575061a4b146145b80610e00575061a4ba46145b80610e0c575061e70846145b905090565b5f73565dca92902ea0ca597b5e62df0b47886b6b7d4d905090565b5f73c4e4dc291a5c4debe9ff5a3372f3fdd2e42bac86905090565b606082610e5c57610e5782610f48565b610e64565b819050610e65565b5b92915050565b5f617a69461480610e7e57506204991946145b905090565b5f5f5f601e73f4e4fdca9d5d55e64525e314391996a15f7ec600610ea7919061231d565b73ffffffffffffffffffffffffffffffffffffffff16604051610ec9906128fd565b5f60405180830381855afa9150503d805f8114610f01576040519150601f19603f3d011682016040523d82523d5f602084013e610f06565b606091505b5091509150811580610f1857505f8151145b15610f27575f92505050610f45565b5f81806020019051810190610f3c9190612001565b90508093505050505b90565b5f81511115610f5a5780518082602001fd5b6040517f1425ea4200000000000000000000000000000000000000000000000000000000815260040160405180910390fd5b6040518060800160405280610f9f610fe6565b81526020015f81526020015f8152602001610fb861103c565b81525090565b6040518060800160405280606081526020016060815260200160608152602001606081525090565b60405180606001604052805f7bffffffffffffffffffffffffffffffffffffffffffffffffffffffff1916815260200161101e61109b565b81526020015f600181111561103657611035611438565b5b81525090565b6040518060a001604052805f73ffffffffffffffffffffffffffffffffffffffff1681526020015f7bffffffffffffffffffffffffffffffffffffffffffffffffffffffff191681526020015f81526020015f81526020015f81525090565b604051806101000160405280600890602082028036833780820191505090505090565b5f604051905090565b5f5ffd5b5f5ffd5b5f5ffd5b5f5ffd5b5f601f19601f8301169050919050565b7f4e487b71000000000000000000000000000000000000000000000000000000005f52604160045260245ffd5b61111d826110d7565b810181811067ffffffffffffffff8211171561113c5761113b6110e7565b5b80604052505050565b5f61114e6110be565b905061115a8282611114565b919050565b5f67ffffffffffffffff821115611179576111786110e7565b5b611182826110d7565b9050602081019050919050565b828183375f83830152505050565b5f6111af6111aa8461115f565b611145565b9050828152602081018484840111156111cb576111ca6110d3565b5b6111d684828561118f565b509392505050565b5f82601f8301126111f2576111f16110cf565b5b813561120284826020860161119d565b91505092915050565b5f602082840312156112205761121f6110c7565b5b5f82013567ffffffffffffffff81111561123d5761123c6110cb565b5b611249848285016111de565b91505092915050565b5f73ffffffffffffffffffffffffffffffffffffffff82169050919050565b5f61127b82611252565b9050919050565b61128b81611271565b82525050565b5f6020820190506112a45f830184611282565b92915050565b5f5ffd5b5f606082840312156112c3576112c26112aa565b5b81905092915050565b6112d581611271565b81146112df575f5ffd5b50565b5f813590506112f0816112cc565b92915050565b5f5f6040838503121561130c5761130b6110c7565b5b5f83013567ffffffffffffffff811115611329576113286110cb565b5b611335858286016112ae565b9250506020611346858286016112e2565b9150509250929050565b5f7fffffffff0000000000000000000000000000000000000000000000000000000082169050919050565b61138481611350565b82525050565b5f60089050919050565b5f81905092915050565b5f819050919050565b5f819050919050565b6113b9816113a7565b82525050565b5f6113ca83836113b0565b60208301905092915050565b5f602082019050919050565b6113eb8161138a565b6113f58184611394565b92506114008261139e565b805f5b8381101561143057815161141787826113bf565b9650611422836113d6565b925050600181019050611403565b505050505050565b7f4e487b71000000000000000000000000000000000000000000000000000000005f52602160045260245ffd5b6002811061147657611475611438565b5b50565b5f81905061148682611465565b919050565b5f61149582611479565b9050919050565b6114a58161148b565b82525050565b61014082015f8201516114c05f85018261137b565b5060208201516114d360208501826113e2565b5060408201516114e761012085018261149c565b50505050565b5f819050919050565b6114ff816114ed565b82525050565b61150e81611271565b82525050565b60a082015f8201516115285f850182611505565b50602082015161153b602085018261137b565b50604082015161154e60408501826114f6565b50606082015161156160608501826114f6565b50608082015161157460808501826113b0565b50505050565b61022082015f82015161158f5f8501826114ab565b5060208201516115a36101408501826113b0565b5060408201516115b76101608501826114f6565b5060608201516115cb610180850182611514565b50505050565b6115da816113a7565b82525050565b5f81519050919050565b5f82825260208201905092915050565b8281835e5f83830152505050565b5f611612826115e0565b61161c81856115ea565b935061162c8185602086016115fa565b611635816110d7565b840191505092915050565b5f610280820190506116545f83018761157a565b6116626102208301866115d1565b8181036102408301526116758185611608565b9050611685610260830184611282565b95945050505050565b611697816114ed565b81146116a1575f5ffd5b50565b5f813590506116b28161168e565b92915050565b5f602082840312156116cd576116cc6110c7565b5b5f6116da848285016116a4565b91505092915050565b5f610220820190506116f75f83018461157a565b92915050565b5f5f60408385031215611713576117126110c7565b5b5f611720858286016116a4565b9250506020611731858286016116a4565b9150509250929050565b7f496e76616c69642061646472657373206c656e677468000000000000000000005f82015250565b5f61176f6016836115ea565b915061177a8261173b565b602082019050919050565b5f6020820190508181035f83015261179c81611763565b9050919050565b7f4e487b71000000000000000000000000000000000000000000000000000000005f52601160045260245ffd5b5f6117da826114ed565b91506117e5836114ed565b92508282026117f3816114ed565b9150828204841483151761180a576118096117a3565b5b5092915050565b5f61181b826114ed565b9150611826836114ed565b925082820190508082111561183e5761183d6117a3565b5b92915050565b7f4e487b71000000000000000000000000000000000000000000000000000000005f52603260045260245ffd5b5f60ff82169050919050565b5f61188782611871565b915061189283611871565b92508282026118a081611871565b91508082146118b2576118b16117a3565b5b5092915050565b5f6118c382611871565b91506118ce83611871565b9250828201905060ff8111156118e7576118e66117a3565b5b92915050565b5f81519050919050565b5f819050602082019050919050565b5f7fffffffffffffffffffffffffffffffffffffffff00000000000000000000000082169050919050565b5f61193c8251611906565b80915050919050565b5f82821b905092915050565b5f61195b826118ed565b82611965846118f7565b905061197081611931565b925060148210156119b0576119ab7fffffffffffffffffffffffffffffffffffffffff00000000000000000000000083601403600802611945565b831692505b5050919050565b5f5ffd5b5f5ffd5b6119c881611871565b81146119d2575f5ffd5b50565b5f813590506119e3816119bf565b92915050565b5f67ffffffffffffffff82169050919050565b611a05816119e9565b8114611a0f575f5ffd5b50565b5f81359050611a20816119fc565b92915050565b5f60808284031215611a3b57611a3a6119b7565b5b611a456080611145565b90505f82013567ffffffffffffffff811115611a6457611a636119bb565b5b611a70848285016111de565b5f830152506020611a83848285016119d5565b602083015250604082013567ffffffffffffffff811115611aa757611aa66119bb565b5b611ab3848285016111de565b6040830152506060611ac784828501611a12565b60608301525092915050565b5f67ffffffffffffffff821115611aed57611aec6110e7565b5b611af6826110d7565b9050602081019050919050565b5f611b15611b1084611ad3565b611145565b905082815260208101848484011115611b3157611b306110d3565b5b611b3c84828561118f565b509392505050565b5f82601f830112611b5857611b576110cf565b5b8135611b68848260208601611b03565b91505092915050565b5f60608284031215611b8657611b856119b7565b5b611b906060611145565b90505f611b9f84828501611a12565b5f83015250602082013567ffffffffffffffff811115611bc257611bc16119bb565b5b611bce84828501611b44565b602083015250604082013567ffffffffffffffff811115611bf257611bf16119bb565b5b611bfe84828501611b44565b60408301525092915050565b5f60608284031215611c1f57611c1e6119b7565b5b611c296060611145565b90505f82013567ffffffffffffffff811115611c4857611c476119bb565b5b611c54848285016111de565b5f83015250602082013567ffffffffffffffff811115611c7757611c766119bb565b5b611c8384828501611a26565b602083015250604082013567ffffffffffffffff811115611ca757611ca66119bb565b5b611cb384828501611b71565b60408301525092915050565b5f611cca3683611c0a565b9050919050565b7f496e76616c69642073656e64657220656d61696c0000000000000000000000005f82015250565b5f611d056014836115ea565b9150611d1082611cd1565b602082019050919050565b5f6020820190508181035f830152611d3281611cf9565b9050919050565b7f496e76616c696420726563697069656e7420656d61696c0000000000000000005f82015250565b5f611d6d6017836115ea565b9150611d7882611d39565b602082019050919050565b5f6020820190508181035f830152611d9a81611d61565b9050919050565b7f496e76616c69642073656e64657220656d61696c20646f6d61696e00000000005f82015250565b5f611dd5601b836115ea565b9150611de082611da1565b602082019050919050565b5f6020820190508181035f830152611e0281611dc9565b9050919050565b7f496e76616c696420726563697069656e7420656d61696c20646f6d61696e00005f82015250565b5f611e3d601e836115ea565b9150611e4882611e09565b602082019050919050565b5f6020820190508181035f830152611e6a81611e31565b9050919050565b5f81905092915050565b5f611e85826115e0565b611e8f8185611e71565b9350611e9f8185602086016115fa565b80840191505092915050565b5f819050919050565b611ec5611ec0826114ed565b611eab565b82525050565b5f611ed68286611e7b565b9150611ee28285611e7b565b9150611eee8284611eb4565b602082019150819050949350505050565b5f81905092915050565b5f611f13826118ed565b611f1d8185611eff565b9350611f2d8185602086016115fa565b80840191505092915050565b5f611f448284611f09565b915081905092915050565b611f58816113a7565b8114611f62575f5ffd5b50565b5f81519050611f7381611f4f565b92915050565b5f60208284031215611f8e57611f8d6110c7565b5b5f611f9b84828501611f65565b91505092915050565b611fad816114ed565b82525050565b5f602082019050611fc65f830184611fa4565b92915050565b5f8115159050919050565b611fe081611fcc565b8114611fea575f5ffd5b50565b5f81519050611ffb81611fd7565b92915050565b5f60208284031215612016576120156110c7565b5b5f61202384828501611fed565b91505092915050565b7f4661696c6564206368656174636f646520696e766f636174696f6e00000000005f82015250565b5f612060601b836115ea565b915061206b8261202c565b602082019050919050565b5f6020820190508181035f83015261208d81612054565b9050919050565b5f6040820190506120a75f830185611fa4565b6120b46020830184611fa4565b9392505050565b5f6120c582611871565b91506120d083611871565b9250828203905060ff8111156120e9576120e86117a3565b5b92915050565b7f496e76616c6964206865782063686172616374657200000000000000000000005f82015250565b5f6121236015836115ea565b915061212e826120ef565b602082019050919050565b5f6020820190508181035f83015261215081612117565b9050919050565b7f456d61696c50726f6f663a206578706972656420444e532076657269666963615f8201527f74696f6e00000000000000000000000000000000000000000000000000000000602082015250565b5f6121b16024836115ea565b91506121bc82612157565b604082019050919050565b5f6020820190508181035f8301526121de816121a5565b9050919050565b7f4e6f7420612076616c69642056444e532068617264636f646564206b657900005f82015250565b5f612219601e836115ea565b9150612224826121e5565b602082019050919050565b5f6020820190508181035f8301526122468161220d565b9050919050565b5f82825260208201905092915050565b5f612267826118ed565b612271818561224d565b93506122818185602086016115fa565b61228a816110d7565b840191505092915050565b5f6020820190508181035f8301526122ad818461225d565b905092915050565b7f4e6f7420612076616c69642056444e53207075626c6963206b657900000000005f82015250565b5f6122e9601b836115ea565b91506122f4826122b5565b602082019050919050565b5f6020820190508181035f830152612316816122dd565b9050919050565b5f61232782611252565b915061233283611252565b9250828201905073ffffffffffffffffffffffffffffffffffffffff81111561235e5761235d6117a3565b5b92915050565b5f82825260208201905092915050565b5f61237e826115e0565b6123888185612364565b93506123988185602086016115fa565b6123a1816110d7565b840191505092915050565b6123b581611871565b82525050565b6123c4816119e9565b82525050565b5f608083015f8301518482035f8601526123e48282612374565b91505060208301516123f960208601826123ac565b50604083015184820360408601526124118282612374565b915050606083015161242660608601826123bb565b508091505092915050565b5f82825260208201905092915050565b5f61244b826118ed565b6124558185612431565b93506124658185602086016115fa565b61246e816110d7565b840191505092915050565b5f606083015f83015161248e5f8601826123bb565b50602083015184820360208601526124a68282612441565b915050604083015184820360408601526124c08282612441565b9150508091505092915050565b5f606083015f8301518482035f8601526124e78282612374565b9150506020830151848203602086015261250182826123ca565b9150506040830151848203604086015261251b8282612479565b9150508091505092915050565b5f6020820190508181035f83015261254081846124cd565b905092915050565b5f61255a6125558461115f565b611145565b905082815260208101848484011115612576576125756110d3565b5b6125818482856115fa565b509392505050565b5f82601f83011261259d5761259c6110cf565b5b81516125ad848260208601612548565b91505092915050565b5f608082840312156125cb576125ca6119b7565b5b6125d56080611145565b90505f82015167ffffffffffffffff8111156125f4576125f36119bb565b5b61260084828501612589565b5f83015250602082015167ffffffffffffffff811115612623576126226119bb565b5b61262f84828501612589565b602083015250604082015167ffffffffffffffff811115612653576126526119bb565b5b61265f84828501612589565b604083015250606082015167ffffffffffffffff811115612683576126826119bb565b5b61268f84828501612589565b60608301525092915050565b5f602082840312156126b0576126af6110c7565b5b5f82015167ffffffffffffffff8111156126cd576126cc6110cb565b5b6126d9848285016125b6565b91505092915050565b5f60029050919050565b5f81905092915050565b5f819050919050565b5f61270a8383612374565b905092915050565b5f602082019050919050565b5f612728826126e2565b61273281856126ec565b935083602082028501612744856126f6565b805f5b8581101561277f578484038952815161276085826126ff565b945061276b83612712565b925060208a01995050600181019050612747565b50829750879550505050505092915050565b5f6020820190508181035f8301526127a9818461271e565b905092915050565b5f67ffffffffffffffff8211156127cb576127ca6110e7565b5b602082029050602081019050919050565b5f5ffd5b5f6127f26127ed846127b1565b611145565b90508083825260208201905060208402830185811115612815576128146127dc565b5b835b8181101561285c57805167ffffffffffffffff81111561283a576128396110cf565b5b8086016128478982612589565b85526020850194505050602081019050612817565b5050509392505050565b5f82601f83011261287a576128796110cf565b5b815161288a8482602086016127e0565b91505092915050565b5f602082840312156128a8576128a76110c7565b5b5f82015167ffffffffffffffff8111156128c5576128c46110cb565b5b6128d184828501612866565b91505092915050565b50565b5f6128e85f83611eff565b91506128f3826128da565b5f82019050919050565b5f612907826128dd565b915081905091905056fe5e5b5c772e2d5d2b40285b612d7a412d5a5c642e2d5d2b5c2e5b612d7a412d5a5d7b322c7d2924a264697066735822122083d6200f37bcd82960cbceef626a597a2b11f24f48e481124b7f64727200472064736f6c634300081e0033","linkReferences":{}},"methodIdentifiers":{"main((string,(string,uint8,string,uint64),(uint64,bytes,bytes)),address)":"7d20e606","proof()":"faf924cf","setBlock(uint256)":"87cea3ae","setChain(uint256,uint256)":"ffbc5638","stringToAddress(string)":"15706fdf"},"id":68}