{"abi":[{"type":"constructor","inputs":[{"name":"_prover","type":"address","internalType":"address"}],"stateMutability":"nonpayable"},{"type":"function","name":"_setTestVerifier","inputs":[{"name":"newVerifier","type":"address","internalType":"contract IProofVerifier"}],"outputs":[],"stateMutability":"nonpayable"},{"type":"function","name":"approve","inputs":[{"name":"to","type":"address","internalType":"address"},{"name":"tokenId","type":"uint256","internalType":"uint256"}],"outputs":[],"stateMutability":"nonpayable"},{"type":"function","name":"balanceOf","inputs":[{"name":"owner","type":"address","internalType":"address"}],"outputs":[{"name":"","type":"uint256","internalType":"uint256"}],"stateMutability":"view"},{"type":"function","name":"currentTokenId","inputs":[],"outputs":[{"name":"","type":"uint256","internalType":"uint256"}],"stateMutability":"view"},{"type":"function","name":"getApproved","inputs":[{"name":"tokenId","type":"uint256","internalType":"uint256"}],"outputs":[{"name":"","type":"address","internalType":"address"}],"stateMutability":"view"},{"type":"function","name":"getEmailContent","inputs":[{"name":"tokenId","type":"uint256","internalType":"uint256"}],"outputs":[{"name":"","type":"string","internalType":"string"}],"stateMutability":"view"},{"type":"function","name":"isApprovedForAll","inputs":[{"name":"owner","type":"address","internalType":"address"},{"name":"operator","type":"address","internalType":"address"}],"outputs":[{"name":"","type":"bool","internalType":"bool"}],"stateMutability":"view"},{"type":"function","name":"name","inputs":[],"outputs":[{"name":"","type":"string","internalType":"string"}],"stateMutability":"view"},{"type":"function","name":"ownerOf","inputs":[{"name":"tokenId","type":"uint256","internalType":"uint256"}],"outputs":[{"name":"","type":"address","internalType":"address"}],"stateMutability":"view"},{"type":"function","name":"prover","inputs":[],"outputs":[{"name":"","type":"address","internalType":"address"}],"stateMutability":"view"},{"type":"function","name":"safeTransferFrom","inputs":[{"name":"from","type":"address","internalType":"address"},{"name":"to","type":"address","internalType":"address"},{"name":"tokenId","type":"uint256","internalType":"uint256"}],"outputs":[],"stateMutability":"nonpayable"},{"type":"function","name":"safeTransferFrom","inputs":[{"name":"from","type":"address","internalType":"address"},{"name":"to","type":"address","internalType":"address"},{"name":"tokenId","type":"uint256","internalType":"uint256"},{"name":"data","type":"bytes","internalType":"bytes"}],"outputs":[],"stateMutability":"nonpayable"},{"type":"function","name":"setApprovalForAll","inputs":[{"name":"operator","type":"address","internalType":"address"},{"name":"approved","type":"bool","internalType":"bool"}],"outputs":[],"stateMutability":"nonpayable"},{"type":"function","name":"supportsInterface","inputs":[{"name":"interfaceId","type":"bytes4","internalType":"bytes4"}],"outputs":[{"name":"","type":"bool","internalType":"bool"}],"stateMutability":"view"},{"type":"function","name":"symbol","inputs":[],"outputs":[{"name":"","type":"string","internalType":"string"}],"stateMutability":"view"},{"type":"function","name":"takenEmailHashes","inputs":[{"name":"","type":"bytes32","internalType":"bytes32"}],"outputs":[{"name":"","type":"bool","internalType":"bool"}],"stateMutability":"view"},{"type":"function","name":"tokenIdToEmailContent","inputs":[{"name":"","type":"uint256","internalType":"uint256"}],"outputs":[{"name":"","type":"string","internalType":"string"}],"stateMutability":"view"},{"type":"function","name":"tokenIdToMetadataUri","inputs":[{"name":"","type":"uint256","internalType":"uint256"}],"outputs":[{"name":"","type":"string","internalType":"string"}],"stateMutability":"view"},{"type":"function","name":"tokenURI","inputs":[{"name":"tokenId","type":"uint256","internalType":"uint256"}],"outputs":[{"name":"","type":"string","internalType":"string"}],"stateMutability":"view"},{"type":"function","name":"transferFrom","inputs":[{"name":"from","type":"address","internalType":"address"},{"name":"to","type":"address","internalType":"address"},{"name":"tokenId","type":"uint256","internalType":"uint256"}],"outputs":[],"stateMutability":"nonpayable"},{"type":"function","name":"verifier","inputs":[],"outputs":[{"name":"","type":"address","internalType":"contract IProofVerifier"}],"stateMutability":"view"},{"type":"function","name":"verify","inputs":[{"name":"","type":"tuple","internalType":"struct Proof","components":[{"name":"seal","type":"tuple","internalType":"struct Seal","components":[{"name":"verifierSelector","type":"bytes4","internalType":"bytes4"},{"name":"seal","type":"bytes32[8]","internalType":"bytes32[8]"},{"name":"mode","type":"uint8","internalType":"enum ProofMode"}]},{"name":"callGuestId","type":"bytes32","internalType":"bytes32"},{"name":"length","type":"uint256","internalType":"uint256"},{"name":"callAssumptions","type":"tuple","internalType":"struct CallAssumptions","components":[{"name":"proverContractAddress","type":"address","internalType":"address"},{"name":"functionSelector","type":"bytes4","internalType":"bytes4"},{"name":"settleChainId","type":"uint256","internalType":"uint256"},{"name":"settleBlockNumber","type":"uint256","internalType":"uint256"},{"name":"settleBlockHash","type":"bytes32","internalType":"bytes32"}]}]},{"name":"_emailHash","type":"bytes32","internalType":"bytes32"},{"name":"_emailFromDomain","type":"string","internalType":"string"},{"name":"_sender","type":"address","internalType":"address"},{"name":"_emailContent","type":"string","internalType":"string"}],"outputs":[],"stateMutability":"nonpayable"},{"type":"event","name":"Approval","inputs":[{"name":"owner","type":"address","indexed":true,"internalType":"address"},{"name":"approved","type":"address","indexed":true,"internalType":"address"},{"name":"tokenId","type":"uint256","indexed":true,"internalType":"uint256"}],"anonymous":false},{"type":"event","name":"ApprovalForAll","inputs":[{"name":"owner","type":"address","indexed":true,"internalType":"address"},{"name":"operator","type":"address","indexed":true,"internalType":"address"},{"name":"approved","type":"bool","indexed":false,"internalType":"bool"}],"anonymous":false},{"type":"event","name":"Transfer","inputs":[{"name":"from","type":"address","indexed":true,"internalType":"address"},{"name":"to","type":"address","indexed":true,"internalType":"address"},{"name":"tokenId","type":"uint256","indexed":true,"internalType":"uint256"}],"anonymous":false},{"type":"error","name":"ERC721IncorrectOwner","inputs":[{"name":"sender","type":"address","internalType":"address"},{"name":"tokenId","type":"uint256","internalType":"uint256"},{"name":"owner","type":"address","internalType":"address"}]},{"type":"error","name":"ERC721InsufficientApproval","inputs":[{"name":"operator","type":"address","internalType":"address"},{"name":"tokenId","type":"uint256","internalType":"uint256"}]},{"type":"error","name":"ERC721InvalidApprover","inputs":[{"name":"approver","type":"address","internalType":"address"}]},{"type":"error","name":"ERC721InvalidOperator","inputs":[{"name":"operator","type":"address","internalType":"address"}]},{"type":"error","name":"ERC721InvalidOwner","inputs":[{"name":"owner","type":"address","internalType":"address"}]},{"type":"error","name":"ERC721InvalidReceiver","inputs":[{"name":"receiver","type":"address","internalType":"address"}]},{"type":"error","name":"ERC721InvalidSender","inputs":[{"name":"sender","type":"address","internalType":"address"}]},{"type":"error","name":"ERC721NonexistentToken","inputs":[{"name":"tokenId","type":"uint256","internalType":"uint256"}]},{"type":"error","name":"InvalidChainId","inputs":[]}],"bytecode":{"object":"0x60a060405234801561000f575f5ffd5b506040516189cc3803806189cc833981810160405281019061003191906105e7565b6040518060400160405280600b81526020017f4c657850726f6f664e46540000000000000000000000000000000000000000008152506040518060400160405280600481526020017f4c455850000000000000000000000000000000000000000000000000000000008152506100ab61018560201b60201c565b5f5f6101000a81548173ffffffffffffffffffffffffffffffffffffffff021916908373ffffffffffffffffffffffffffffffffffffffff1602179055503373ffffffffffffffffffffffffffffffffffffffff1660808173ffffffffffffffffffffffffffffffffffffffff1681525050816001908161012c919061084f565b50806002908161013c919061084f565b5050508060075f6101000a81548173ffffffffffffffffffffffffffffffffffffffff021916908373ffffffffffffffffffffffffffffffffffffffff16021790555050610b05565b5f61019461032160201b60201c565b15610290575f30306040516101a89061056f565b6101b392919061092d565b604051809103905ff0801580156101cc573d5f5f3e3d5ffd5b5090508073ffffffffffffffffffffffffffffffffffffffff166384cf84e17fdcb00648ecc90d8bfe92aa8d51061beb0bcb110d274fc4a517e526574233d36b5f1b6040518263ffffffff1660e01b815260040161022a919061096c565b5f604051808303815f87803b158015610241575f5ffd5b505af1158015610253573d5f5f3e3d5ffd5b50505050806040516102649061057c565b61026e91906109d7565b604051809103905ff080158015610287573d5f5f3e3d5ffd5b5091505061031e565b61029e61034a60201b60201c565b156102bd575f6102b26103b260201b60201c565b90508091505061031e565b6102cb6103d260201b60201c565b156102ec575f6102df61043660201b60201c565b925050508091505061031e565b6040517f7a47c9a200000000000000000000000000000000000000000000000000000000815260040160405180910390fd5b90565b5f61033061049260201b60201c565b8061034557506103446104aa60201b60201c565b5b905090565b5f600146148061035a5750600a46145b806103655750608946145b80610371575061014446145b8061037d57506101e046145b80610389575061210546145b80610395575061a4b146145b806103a1575061a4ba46145b806103ad575061e70846145b905090565b5f5f735553cf6ce25e3f80fad2866f6230346159ecd89c90508091505090565b5f62aa36a74614806103e5575061012c46145b806103f157506112c146145b806103fd575061e70546145b8061040a57506201388246145b80610417575062014a3446145b80610424575062066eee46145b80610431575062aa37dc46145b905090565b5f5f5f5f739e30dc3e49c4d47f982902710616dcc4b6ff7bf590505f737e231cfc3e3b549633d5ad61c30f07dd4d408ad390505f738972b6ff413ac04e61e19f07d7f3bd980d0cc3219050828282955095509550505050909192565b5f617a694614806104a557506204991946145b905090565b5f5f5f601e73f4e4fdca9d5d55e64525e314391996a15f7ec6006104ce9190610a1d565b73ffffffffffffffffffffffffffffffffffffffff166040516104f090610a91565b5f60405180830381855afa9150503d805f8114610528576040519150601f19603f3d011682016040523d82523d5f602084013e61052d565b606091505b509150915081158061053f57505f8151145b1561054e575f9250505061056c565b5f818060200190518101906105639190610ada565b90508093505050505b90565b611fd08061435083390190565b6126ac8061632083390190565b5f5ffd5b5f73ffffffffffffffffffffffffffffffffffffffff82169050919050565b5f6105b68261058d565b9050919050565b6105c6816105ac565b81146105d0575f5ffd5b50565b5f815190506105e1816105bd565b92915050565b5f602082840312156105fc576105fb610589565b5b5f610609848285016105d3565b91505092915050565b5f81519050919050565b7f4e487b71000000000000000000000000000000000000000000000000000000005f52604160045260245ffd5b7f4e487b71000000000000000000000000000000000000000000000000000000005f52602260045260245ffd5b5f600282049050600182168061068d57607f821691505b6020821081036106a05761069f610649565b5b50919050565b5f819050815f5260205f209050919050565b5f6020601f8301049050919050565b5f82821b905092915050565b5f600883026107027fffffffffffffffffffffffffffffffffffffffffffffffffffffffffffffffff826106c7565b61070c86836106c7565b95508019841693508086168417925050509392505050565b5f819050919050565b5f819050919050565b5f61075061074b61074684610724565b61072d565b610724565b9050919050565b5f819050919050565b61076983610736565b61077d61077582610757565b8484546106d3565b825550505050565b5f5f905090565b610794610785565b61079f818484610760565b505050565b5b818110156107c2576107b75f8261078c565b6001810190506107a5565b5050565b601f821115610807576107d8816106a6565b6107e1846106b8565b810160208510156107f0578190505b6108046107fc856106b8565b8301826107a4565b50505b505050565b5f82821c905092915050565b5f6108275f198460080261080c565b1980831691505092915050565b5f61083f8383610818565b9150826002028217905092915050565b61085882610612565b67ffffffffffffffff8111156108715761087061061c565b5b61087b8254610676565b6108868282856107c6565b5f60209050601f8311600181146108b7575f84156108a5578287015190505b6108af8582610834565b865550610916565b601f1984166108c5866106a6565b5f5b828110156108ec578489015182556001820191506020850194506020810190506108c7565b868310156109095784890151610905601f891682610818565b8355505b6001600288020188555050505b505050505050565b610927816105ac565b82525050565b5f6040820190506109405f83018561091e565b61094d602083018461091e565b9392505050565b5f819050919050565b61096681610954565b82525050565b5f60208201905061097f5f83018461095d565b92915050565b5f61099f61099a6109958461058d565b61072d565b61058d565b9050919050565b5f6109b082610985565b9050919050565b5f6109c1826109a6565b9050919050565b6109d1816109b7565b82525050565b5f6020820190506109ea5f8301846109c8565b92915050565b7f4e487b71000000000000000000000000000000000000000000000000000000005f52601160045260245ffd5b5f610a278261058d565b9150610a328361058d565b9250828201905073ffffffffffffffffffffffffffffffffffffffff811115610a5e57610a5d6109f0565b5b92915050565b5f81905092915050565b50565b5f610a7c5f83610a64565b9150610a8782610a6e565b5f82019050919050565b5f610a9b82610a71565b9150819050919050565b5f8115159050919050565b610ab981610aa5565b8114610ac3575f5ffd5b50565b5f81519050610ad481610ab0565b92915050565b5f60208284031215610aef57610aee610589565b5b5f610afc84828501610ac6565b91505092915050565b608051613833610b1d5f395f610aed01526138335ff3fe608060405234801561000f575f5ffd5b506004361061013f575f3560e01c80636352211e116100b6578063a22cb4651161007a578063a22cb46514610385578063b352ca0f146103a1578063b88d4fde146103d1578063c87b56dd146103ed578063e985e9c51461041d578063e9997c521461044d5761013f565b80636352211e146102bb5780636b6fe90a146102eb57806370a082311461031b57806395d89b411461034b5780639b8b30c8146103695761013f565b8063095ea7b311610108578063095ea7b3146101fb57806323b872dd146102175780632b7ac3f31461023357806332a8f30f1461025157806342842e0e1461026f5780635889d3ea1461028b5761013f565b80629a9b7b1461014357806301ffc9a71461016157806306fdde0314610191578063081812fc146101af5780630950687f146101df575b5f5ffd5b61014b61047d565b6040516101589190612146565b60405180910390f35b61017b600480360381019061017691906121c5565b610483565b604051610188919061220a565b60405180910390f35b610199610564565b6040516101a69190612293565b60405180910390f35b6101c960048036038101906101c491906122dd565b6105f4565b6040516101d69190612347565b60405180910390f35b6101f960048036038101906101f4919061250c565b61060f565b005b610215600480360381019061021091906125c0565b610759565b005b610231600480360381019061022c91906125fe565b61076f565b005b61023b61086e565b60405161024891906126a9565b60405180910390f35b610259610892565b6040516102669190612347565b60405180910390f35b610289600480360381019061028491906125fe565b6108b7565b005b6102a560048036038101906102a091906126c2565b6108d6565b6040516102b2919061220a565b60405180910390f35b6102d560048036038101906102d091906122dd565b6108f3565b6040516102e29190612347565b60405180910390f35b610305600480360381019061030091906122dd565b610904565b6040516103129190612293565b60405180910390f35b610335600480360381019061033091906126ed565b6109a5565b6040516103429190612146565b60405180910390f35b610353610a5b565b6040516103609190612293565b60405180910390f35b610383600480360381019061037e9190612753565b610aeb565b005b61039f600480360381019061039a91906127a8565b610ceb565b005b6103bb60048036038101906103b691906122dd565b610d01565b6040516103c89190612293565b60405180910390f35b6103eb60048036038101906103e69190612884565b610d9c565b005b610407600480360381019061040291906122dd565b610db9565b6040516104149190612293565b60405180910390f35b61043760048036038101906104329190612904565b610e5a565b604051610444919061220a565b60405180910390f35b610467600480360381019061046291906122dd565b610ee8565b6040516104749190612293565b60405180910390f35b60085481565b5f7f80ac58cd000000000000000000000000000000000000000000000000000000007bffffffffffffffffffffffffffffffffffffffffffffffffffffffff1916827bffffffffffffffffffffffffffffffffffffffffffffffffffffffff1916148061054d57507f5b5e139f000000000000000000000000000000000000000000000000000000007bffffffffffffffffffffffffffffffffffffffffffffffffffffffff1916827bffffffffffffffffffffffffffffffffffffffffffffffffffffffff1916145b8061055d575061055c82610f83565b5b9050919050565b6060600180546105739061296f565b80601f016020809104026020016040519081016040528092919081815260200182805461059f9061296f565b80156105ea5780601f106105c1576101008083540402835291602001916105ea565b820191905f5260205f20905b8154815290600101906020018083116105cd57829003601f168201915b5050505050905090565b5f6105fe82610fec565b5061060882611072565b9050919050565b60075f9054906101000a900473ffffffffffffffffffffffffffffffffffffffff16637d20e60660e01b61064382826110ab565b5f151560095f8881526020019081526020015f205f9054906101000a900460ff161515146106a6576040517f08c379a000000000000000000000000000000000000000000000000000000000815260040161069d906129e9565b60405180910390fd5b600160095f8881526020019081526020015f205f6101000a81548160ff0219169083151502179055505f60016008546106df9190612a34565b9050856040516020016106f29190612b11565b604051602081830303815290604052600a5f8381526020019081526020015f20908161071e9190612cc9565b5083600b5f8381526020019081526020015f20908161073d9190612cc9565b508060088190555061074f858261114a565b5050505050505050565b61076b8282610766611167565b61116e565b5050565b5f73ffffffffffffffffffffffffffffffffffffffff168273ffffffffffffffffffffffffffffffffffffffff16036107df575f6040517f64a0ae920000000000000000000000000000000000000000000000000000000081526004016107d69190612347565b60405180910390fd5b5f6107f283836107ed611167565b611180565b90508373ffffffffffffffffffffffffffffffffffffffff168173ffffffffffffffffffffffffffffffffffffffff1614610868578382826040517f64283d7b00000000000000000000000000000000000000000000000000000000815260040161085f93929190612d98565b60405180910390fd5b50505050565b5f5f9054906101000a900473ffffffffffffffffffffffffffffffffffffffff1681565b60075f9054906101000a900473ffffffffffffffffffffffffffffffffffffffff1681565b6108d183838360405180602001604052805f815250610d9c565b505050565b6009602052805f5260405f205f915054906101000a900460ff1681565b5f6108fd82610fec565b9050919050565b6060600b5f8381526020019081526020015f2080546109229061296f565b80601f016020809104026020016040519081016040528092919081815260200182805461094e9061296f565b80156109995780601f1061097057610100808354040283529160200191610999565b820191905f5260205f20905b81548152906001019060200180831161097c57829003601f168201915b50505050509050919050565b5f5f73ffffffffffffffffffffffffffffffffffffffff168273ffffffffffffffffffffffffffffffffffffffff1603610a16575f6040517f89c62b64000000000000000000000000000000000000000000000000000000008152600401610a0d9190612347565b60405180910390fd5b60045f8373ffffffffffffffffffffffffffffffffffffffff1673ffffffffffffffffffffffffffffffffffffffff1681526020019081526020015f20549050919050565b606060028054610a6a9061296f565b80601f0160208091040260200160405190810160405280929190818152602001828054610a969061296f565b8015610ae15780601f10610ab857610100808354040283529160200191610ae1565b820191905f5260205f20905b815481529060010190602001808311610ac457829003601f168201915b5050505050905090565b7f000000000000000000000000000000000000000000000000000000000000000073ffffffffffffffffffffffffffffffffffffffff163373ffffffffffffffffffffffffffffffffffffffff1614610b79576040517f08c379a0000000000000000000000000000000000000000000000000000000008152600401610b7090612e3d565b60405180910390fd5b610b8161138b565b80610b905750610b8f6113a8565b5b610bcf576040517f08c379a0000000000000000000000000000000000000000000000000000000008152600401610bc690612ecb565b60405180910390fd5b5f73ffffffffffffffffffffffffffffffffffffffff168173ffffffffffffffffffffffffffffffffffffffff16633fd66f226040518163ffffffff1660e01b8152600401602060405180830381865afa158015610c2f573d5f5f3e3d5ffd5b505050506040513d601f19601f82011682018060405250810190610c539190612f24565b73ffffffffffffffffffffffffffffffffffffffff1603610ca9576040517f08c379a0000000000000000000000000000000000000000000000000000000008152600401610ca090612fbf565b60405180910390fd5b805f5f6101000a81548173ffffffffffffffffffffffffffffffffffffffff021916908373ffffffffffffffffffffffffffffffffffffffff16021790555050565b610cfd610cf6611167565b838361140c565b5050565b600b602052805f5260405f205f915090508054610d1d9061296f565b80601f0160208091040260200160405190810160405280929190818152602001828054610d499061296f565b8015610d945780601f10610d6b57610100808354040283529160200191610d94565b820191905f5260205f20905b815481529060010190602001808311610d7757829003601f168201915b505050505081565b610da784848461076f565b610db384848484611575565b50505050565b6060600a5f8381526020019081526020015f208054610dd79061296f565b80601f0160208091040260200160405190810160405280929190818152602001828054610e039061296f565b8015610e4e5780601f10610e2557610100808354040283529160200191610e4e565b820191905f5260205f20905b815481529060010190602001808311610e3157829003601f168201915b50505050509050919050565b5f60065f8473ffffffffffffffffffffffffffffffffffffffff1673ffffffffffffffffffffffffffffffffffffffff1681526020019081526020015f205f8373ffffffffffffffffffffffffffffffffffffffff1673ffffffffffffffffffffffffffffffffffffffff1681526020019081526020015f205f9054906101000a900460ff16905092915050565b600a602052805f5260405f205f915090508054610f049061296f565b80601f0160208091040260200160405190810160405280929190818152602001828054610f309061296f565b8015610f7b5780601f10610f5257610100808354040283529160200191610f7b565b820191905f5260205f20905b815481529060010190602001808311610f5e57829003601f168201915b505050505081565b5f7f01ffc9a7000000000000000000000000000000000000000000000000000000007bffffffffffffffffffffffffffffffffffffffffffffffffffffffff1916827bffffffffffffffffffffffffffffffffffffffffffffffffffffffff1916149050919050565b5f5f610ff783611727565b90505f73ffffffffffffffffffffffffffffffffffffffff168173ffffffffffffffffffffffffffffffffffffffff160361106957826040517f7e2732890000000000000000000000000000000000000000000000000000000081526004016110609190612146565b60405180910390fd5b80915050919050565b5f60055f8381526020019081526020015f205f9054906101000a900473ffffffffffffffffffffffffffffffffffffffff169050919050565b5f5f6110b5611760565b915091505f5f9054906101000a900473ffffffffffffffffffffffffffffffffffffffff1673ffffffffffffffffffffffffffffffffffffffff1663c4fa74e5838387876040518563ffffffff1660e01b8152600401611118949392919061323f565b5f6040518083038186803b15801561112e575f5ffd5b505afa158015611140573d5f5f3e3d5ffd5b5050505050505050565b611163828260405180602001604052805f815250611ae0565b5050565b5f33905090565b61117b8383836001611afb565b505050565b5f5f61118b84611727565b90505f73ffffffffffffffffffffffffffffffffffffffff168373ffffffffffffffffffffffffffffffffffffffff16146111cc576111cb818486611cba565b5b5f73ffffffffffffffffffffffffffffffffffffffff168173ffffffffffffffffffffffffffffffffffffffff16146112575761120b5f855f5f611afb565b600160045f8373ffffffffffffffffffffffffffffffffffffffff1673ffffffffffffffffffffffffffffffffffffffff1681526020019081526020015f205f82825403925050819055505b5f73ffffffffffffffffffffffffffffffffffffffff168573ffffffffffffffffffffffffffffffffffffffff16146112d657600160045f8773ffffffffffffffffffffffffffffffffffffffff1673ffffffffffffffffffffffffffffffffffffffff1681526020019081526020015f205f82825401925050819055505b8460035f8681526020019081526020015f205f6101000a81548173ffffffffffffffffffffffffffffffffffffffff021916908373ffffffffffffffffffffffffffffffffffffffff160217905550838573ffffffffffffffffffffffffffffffffffffffff168273ffffffffffffffffffffffffffffffffffffffff167fddf252ad1be2c89b69c2b068fc378daa952ba7f163c4a11628f55a4df523b3ef60405160405180910390a4809150509392505050565b5f611394611d7d565b806113a357506113a2611d95565b5b905090565b5f62aa36a74614806113bb575061012c46145b806113c757506112c146145b806113d3575061e70546145b806113e057506201388246145b806113ed575062014a3446145b806113fa575062066eee46145b80611407575062aa37dc46145b905090565b5f73ffffffffffffffffffffffffffffffffffffffff168273ffffffffffffffffffffffffffffffffffffffff160361147c57816040517f5b08ba180000000000000000000000000000000000000000000000000000000081526004016114739190612347565b60405180910390fd5b8060065f8573ffffffffffffffffffffffffffffffffffffffff1673ffffffffffffffffffffffffffffffffffffffff1681526020019081526020015f205f8473ffffffffffffffffffffffffffffffffffffffff1673ffffffffffffffffffffffffffffffffffffffff1681526020019081526020015f205f6101000a81548160ff0219169083151502179055508173ffffffffffffffffffffffffffffffffffffffff168373ffffffffffffffffffffffffffffffffffffffff167f17307eab39ab6107e8899845ad3d59bd9653f200f220920489ca2b5937696c3183604051611568919061220a565b60405180910390a3505050565b5f8373ffffffffffffffffffffffffffffffffffffffff163b1115611721578273ffffffffffffffffffffffffffffffffffffffff1663150b7a026115b8611167565b8685856040518563ffffffff1660e01b81526004016115da94939291906132d8565b6020604051808303815f875af192505050801561161557506040513d601f19601f820116820180604052508101906116129190613336565b60015b611696573d805f8114611643576040519150601f19603f3d011682016040523d82523d5f602084013e611648565b606091505b505f81510361168e57836040517f64a0ae920000000000000000000000000000000000000000000000000000000081526004016116859190612347565b60405180910390fd5b805181602001fd5b63150b7a0260e01b7bffffffffffffffffffffffffffffffffffffffffffffffffffffffff1916817bffffffffffffffffffffffffffffffffffffffffffffffffffffffff19161461171f57836040517f64a0ae920000000000000000000000000000000000000000000000000000000081526004016117169190612347565b60405180910390fd5b505b50505050565b5f60035f8381526020019081526020015f205f9054906101000a900473ffffffffffffffffffffffffffffffffffffffff169050919050565b611768612024565b5f5f5f36600490809261177d93929190613369565b81019061178a91906135e1565b90505f602080602080602061179f9190612a34565b6117a99190612a34565b6117b39190612a34565b6117bd9190612a34565b602080602061010060206117d19190612a34565b6117db9190612a34565b6117e59190612a34565b6117ef9190612a34565b60046117fb9190612a34565b6118059190612a34565b90505f602080602080602061181a9190612a34565b6118249190612a34565b61182e9190612a34565b6118389190612a34565b602080602080602061184a9190612a34565b6118549190612a34565b61185e9190612a34565b6118689190612a34565b6020806020610100602061187c9190612a34565b6118869190612a34565b6118909190612a34565b61189a9190612a34565b6118a49190612a34565b84604001516118b3919061360d565b6118bd919061360d565b90505f81836118cc9190612a34565b90505f5f36602080602061010060206118e59190612a34565b6118ef9190612a34565b6118f99190612a34565b6119039190612a34565b600461190f9190612a34565b9060208060208060206119229190612a34565b61192c9190612a34565b6119369190612a34565b6119409190612a34565b602080602061010060206119549190612a34565b61195e9190612a34565b6119689190612a34565b6119729190612a34565b600461197e9190612a34565b6119889190612a34565b9261199593929190613369565b8080601f0160208091040260200160405190810160405280939291908181526020018383808284375f81840152601f19601f8201169050808301925050505050505090505f5f36869085926119ec93929190613369565b8080601f0160208091040260200160405190810160405280939291908181526020018383808284375f81840152601f19601f8201169050808301925050505050505090505f82611a3a611e5a565b604051602001611a4a9190613640565b60405160208183030381529060405283604051602001611a6c93929190613694565b60405160208183030381529060405290505f600282604051611a8e91906136c4565b602060405180830381855afa158015611aa9573d5f5f3e3d5ffd5b5050506040513d601f19601f82011682018060405250810190611acc91906136ee565b905087819950995050505050505050509091565b611aea8383611e71565b611af65f848484611575565b505050565b8080611b3357505f73ffffffffffffffffffffffffffffffffffffffff168273ffffffffffffffffffffffffffffffffffffffff1614155b15611c65575f611b4284610fec565b90505f73ffffffffffffffffffffffffffffffffffffffff168373ffffffffffffffffffffffffffffffffffffffff1614158015611bac57508273ffffffffffffffffffffffffffffffffffffffff168173ffffffffffffffffffffffffffffffffffffffff1614155b8015611bbf5750611bbd8184610e5a565b155b15611c0157826040517fa9fbf51f000000000000000000000000000000000000000000000000000000008152600401611bf89190612347565b60405180910390fd5b8115611c6357838573ffffffffffffffffffffffffffffffffffffffff168273ffffffffffffffffffffffffffffffffffffffff167f8c5be1e5ebec7d5bd14f71427d1e84f3dd0314c0f7b2291e5b200ac8c7c3b92560405160405180910390a45b505b8360055f8581526020019081526020015f205f6101000a81548173ffffffffffffffffffffffffffffffffffffffff021916908373ffffffffffffffffffffffffffffffffffffffff16021790555050505050565b611cc5838383611f64565b611d78575f73ffffffffffffffffffffffffffffffffffffffff168373ffffffffffffffffffffffffffffffffffffffff1603611d3957806040517f7e273289000000000000000000000000000000000000000000000000000000008152600401611d309190612146565b60405180910390fd5b81816040517f177e802f000000000000000000000000000000000000000000000000000000008152600401611d6f929190613719565b60405180910390fd5b505050565b5f617a69461480611d9057506204991946145b905090565b5f5f5f601e73f4e4fdca9d5d55e64525e314391996a15f7ec600611db99190613740565b73ffffffffffffffffffffffffffffffffffffffff16604051611ddb906137aa565b5f60405180830381855afa9150503d805f8114611e13576040519150601f19603f3d011682016040523d82523d5f602084013e611e18565b606091505b5091509150811580611e2a57505f8151145b15611e39575f92505050611e57565b5f81806020019051810190611e4e91906137d2565b90508093505050505b90565b611e62612024565b611e6a612024565b8091505090565b5f73ffffffffffffffffffffffffffffffffffffffff168273ffffffffffffffffffffffffffffffffffffffff1603611ee1575f6040517f64a0ae92000000000000000000000000000000000000000000000000000000008152600401611ed89190612347565b60405180910390fd5b5f611eed83835f611180565b90505f73ffffffffffffffffffffffffffffffffffffffff168173ffffffffffffffffffffffffffffffffffffffff1614611f5f575f6040517f73c6ac6e000000000000000000000000000000000000000000000000000000008152600401611f569190612347565b60405180910390fd5b505050565b5f5f73ffffffffffffffffffffffffffffffffffffffff168373ffffffffffffffffffffffffffffffffffffffff161415801561201b57508273ffffffffffffffffffffffffffffffffffffffff168473ffffffffffffffffffffffffffffffffffffffff161480611fdc5750611fdb8484610e5a565b5b8061201a57508273ffffffffffffffffffffffffffffffffffffffff1661200283611072565b73ffffffffffffffffffffffffffffffffffffffff16145b5b90509392505050565b6040518060800160405280612037612056565b81526020015f81526020015f81526020016120506120ac565b81525090565b60405180606001604052805f7bffffffffffffffffffffffffffffffffffffffffffffffffffffffff1916815260200161208e61210b565b81526020015f60018111156120a6576120a5613091565b5b81525090565b6040518060a001604052805f73ffffffffffffffffffffffffffffffffffffffff1681526020015f7bffffffffffffffffffffffffffffffffffffffffffffffffffffffff191681526020015f81526020015f81526020015f81525090565b604051806101000160405280600890602082028036833780820191505090505090565b5f819050919050565b6121408161212e565b82525050565b5f6020820190506121595f830184612137565b92915050565b5f604051905090565b5f5ffd5b5f5ffd5b5f7fffffffff0000000000000000000000000000000000000000000000000000000082169050919050565b6121a481612170565b81146121ae575f5ffd5b50565b5f813590506121bf8161219b565b92915050565b5f602082840312156121da576121d9612168565b5b5f6121e7848285016121b1565b91505092915050565b5f8115159050919050565b612204816121f0565b82525050565b5f60208201905061221d5f8301846121fb565b92915050565b5f81519050919050565b5f82825260208201905092915050565b8281835e5f83830152505050565b5f601f19601f8301169050919050565b5f61226582612223565b61226f818561222d565b935061227f81856020860161223d565b6122888161224b565b840191505092915050565b5f6020820190508181035f8301526122ab818461225b565b905092915050565b6122bc8161212e565b81146122c6575f5ffd5b50565b5f813590506122d7816122b3565b92915050565b5f602082840312156122f2576122f1612168565b5b5f6122ff848285016122c9565b91505092915050565b5f73ffffffffffffffffffffffffffffffffffffffff82169050919050565b5f61233182612308565b9050919050565b61234181612327565b82525050565b5f60208201905061235a5f830184612338565b92915050565b5f5ffd5b5f610220828403121561237a57612379612360565b5b81905092915050565b5f819050919050565b61239581612383565b811461239f575f5ffd5b50565b5f813590506123b08161238c565b92915050565b5f5ffd5b5f5ffd5b7f4e487b71000000000000000000000000000000000000000000000000000000005f52604160045260245ffd5b6123f48261224b565b810181811067ffffffffffffffff82111715612413576124126123be565b5b80604052505050565b5f61242561215f565b905061243182826123eb565b919050565b5f67ffffffffffffffff8211156124505761244f6123be565b5b6124598261224b565b9050602081019050919050565b828183375f83830152505050565b5f61248661248184612436565b61241c565b9050828152602081018484840111156124a2576124a16123ba565b5b6124ad848285612466565b509392505050565b5f82601f8301126124c9576124c86123b6565b5b81356124d9848260208601612474565b91505092915050565b6124eb81612327565b81146124f5575f5ffd5b50565b5f81359050612506816124e2565b92915050565b5f5f5f5f5f6102a0868803121561252657612525612168565b5b5f61253388828901612364565b955050610220612545888289016123a2565b94505061024086013567ffffffffffffffff8111156125675761256661216c565b5b612573888289016124b5565b935050610260612585888289016124f8565b92505061028086013567ffffffffffffffff8111156125a7576125a661216c565b5b6125b3888289016124b5565b9150509295509295909350565b5f5f604083850312156125d6576125d5612168565b5b5f6125e3858286016124f8565b92505060206125f4858286016122c9565b9150509250929050565b5f5f5f6060848603121561261557612614612168565b5b5f612622868287016124f8565b9350506020612633868287016124f8565b9250506040612644868287016122c9565b9150509250925092565b5f819050919050565b5f61267161266c61266784612308565b61264e565b612308565b9050919050565b5f61268282612657565b9050919050565b5f61269382612678565b9050919050565b6126a381612689565b82525050565b5f6020820190506126bc5f83018461269a565b92915050565b5f602082840312156126d7576126d6612168565b5b5f6126e4848285016123a2565b91505092915050565b5f6020828403121561270257612701612168565b5b5f61270f848285016124f8565b91505092915050565b5f61272282612327565b9050919050565b61273281612718565b811461273c575f5ffd5b50565b5f8135905061274d81612729565b92915050565b5f6020828403121561276857612767612168565b5b5f6127758482850161273f565b91505092915050565b612787816121f0565b8114612791575f5ffd5b50565b5f813590506127a28161277e565b92915050565b5f5f604083850312156127be576127bd612168565b5b5f6127cb858286016124f8565b92505060206127dc85828601612794565b9150509250929050565b5f67ffffffffffffffff821115612800576127ff6123be565b5b6128098261224b565b9050602081019050919050565b5f612828612823846127e6565b61241c565b905082815260208101848484011115612844576128436123ba565b5b61284f848285612466565b509392505050565b5f82601f83011261286b5761286a6123b6565b5b813561287b848260208601612816565b91505092915050565b5f5f5f5f6080858703121561289c5761289b612168565b5b5f6128a9878288016124f8565b94505060206128ba878288016124f8565b93505060406128cb878288016122c9565b925050606085013567ffffffffffffffff8111156128ec576128eb61216c565b5b6128f887828801612857565b91505092959194509250565b5f5f6040838503121561291a57612919612168565b5b5f612927858286016124f8565b9250506020612938858286016124f8565b9150509250929050565b7f4e487b71000000000000000000000000000000000000000000000000000000005f52602260045260245ffd5b5f600282049050600182168061298657607f821691505b60208210810361299957612998612942565b5b50919050565b7f456d61696c20616c7265616479207665726966696564000000000000000000005f82015250565b5f6129d360168361222d565b91506129de8261299f565b602082019050919050565b5f6020820190508181035f830152612a00816129c7565b9050919050565b7f4e487b71000000000000000000000000000000000000000000000000000000005f52601160045260245ffd5b5f612a3e8261212e565b9150612a498361212e565b9250828201905080821115612a6157612a60612a07565b5b92915050565b5f81905092915050565b7f68747470733a2f2f6661756365742e766c617965722e78797a2f6170692f78425f8201527f616467654d6574613f68616e646c653d00000000000000000000000000000000602082015250565b5f612acb603083612a67565b9150612ad682612a71565b603082019050919050565b5f612aeb82612223565b612af58185612a67565b9350612b0581856020860161223d565b80840191505092915050565b5f612b1b82612abf565b9150612b278284612ae1565b915081905092915050565b5f819050815f5260205f209050919050565b5f6020601f8301049050919050565b5f82821b905092915050565b5f60088302612b8e7fffffffffffffffffffffffffffffffffffffffffffffffffffffffffffffffff82612b53565b612b988683612b53565b95508019841693508086168417925050509392505050565b5f612bca612bc5612bc08461212e565b61264e565b61212e565b9050919050565b5f819050919050565b612be383612bb0565b612bf7612bef82612bd1565b848454612b5f565b825550505050565b5f5f905090565b612c0e612bff565b612c19818484612bda565b505050565b5b81811015612c3c57612c315f82612c06565b600181019050612c1f565b5050565b601f821115612c8157612c5281612b32565b612c5b84612b44565b81016020851015612c6a578190505b612c7e612c7685612b44565b830182612c1e565b50505b505050565b5f82821c905092915050565b5f612ca15f1984600802612c86565b1980831691505092915050565b5f612cb98383612c92565b9150826002028217905092915050565b612cd282612223565b67ffffffffffffffff811115612ceb57612cea6123be565b5b612cf5825461296f565b612d00828285612c40565b5f60209050601f831160018114612d31575f8415612d1f578287015190505b612d298582612cae565b865550612d90565b601f198416612d3f86612b32565b5f5b82811015612d6657848901518255600182019150602085019450602081019050612d41565b86831015612d835784890151612d7f601f891682612c92565b8355505b6001600288020188555050505b505050505050565b5f606082019050612dab5f830186612338565b612db86020830185612137565b612dc56040830184612338565b949350505050565b7f4f6e6c79206465706c6f7965722063616e206368616e676520766572696669655f8201527f7200000000000000000000000000000000000000000000000000000000000000602082015250565b5f612e2760218361222d565b9150612e3282612dcd565b604082019050919050565b5f6020820190508181035f830152612e5481612e1b565b9050919050565b7f4368616e67696e6720766572696669657273206973206f6e6c7920616c6c6f775f8201527f6564206f6e206465766e6574206f7220746573746e6574000000000000000000602082015250565b5f612eb560378361222d565b9150612ec082612e5b565b604082019050919050565b5f6020820190508181035f830152612ee281612ea9565b9050919050565b5f612ef382612327565b9050919050565b612f0381612ee9565b8114612f0d575f5ffd5b50565b5f81519050612f1e81612efa565b92915050565b5f60208284031215612f3957612f38612168565b5b5f612f4684828501612f10565b91505092915050565b7f56657269666965722773207265706f7369746f727920616464726573732069735f8201527f206e6f7420736574000000000000000000000000000000000000000000000000602082015250565b5f612fa960288361222d565b9150612fb482612f4f565b604082019050919050565b5f6020820190508181035f830152612fd681612f9d565b9050919050565b612fe681612170565b82525050565b5f60089050919050565b5f81905092915050565b5f819050919050565b61301281612383565b82525050565b5f6130238383613009565b60208301905092915050565b5f602082019050919050565b61304481612fec565b61304e8184612ff6565b925061305982613000565b805f5b838110156130895781516130708782613018565b965061307b8361302f565b92505060018101905061305c565b505050505050565b7f4e487b71000000000000000000000000000000000000000000000000000000005f52602160045260245ffd5b600281106130cf576130ce613091565b5b50565b5f8190506130df826130be565b919050565b5f6130ee826130d2565b9050919050565b6130fe816130e4565b82525050565b61014082015f8201516131195f850182612fdd565b50602082015161312c602085018261303b565b5060408201516131406101208501826130f5565b50505050565b61314f8161212e565b82525050565b61315e81612327565b82525050565b60a082015f8201516131785f850182613155565b50602082015161318b6020850182612fdd565b50604082015161319e6040850182613146565b5060608201516131b16060850182613146565b5060808201516131c46080850182613009565b50505050565b61022082015f8201516131df5f850182613104565b5060208201516131f3610140850182613009565b506040820151613207610160850182613146565b50606082015161321b610180850182613164565b50505050565b61322a81612383565b82525050565b61323981612170565b82525050565b5f610280820190506132535f8301876131ca565b613261610220830186613221565b61326f610240830185612338565b61327d610260830184613230565b95945050505050565b5f81519050919050565b5f82825260208201905092915050565b5f6132aa82613286565b6132b48185613290565b93506132c481856020860161223d565b6132cd8161224b565b840191505092915050565b5f6080820190506132eb5f830187612338565b6132f86020830186612338565b6133056040830185612137565b818103606083015261331781846132a0565b905095945050505050565b5f815190506133308161219b565b92915050565b5f6020828403121561334b5761334a612168565b5b5f61335884828501613322565b91505092915050565b5f5ffd5b5f5ffd5b5f5f8585111561337c5761337b613361565b5b8386111561338d5761338c613365565b5b6001850283019150848603905094509492505050565b5f5ffd5b5f67ffffffffffffffff8211156133c1576133c06123be565b5b602082029050919050565b5f5ffd5b5f6133e26133dd846133a7565b61241c565b905080602084028301858111156133fc576133fb6133cc565b5b835b81811015613425578061341188826123a2565b8452602084019350506020810190506133fe565b5050509392505050565b5f82601f830112613443576134426123b6565b5b60086134508482856133d0565b91505092915050565b60028110613465575f5ffd5b50565b5f8135905061347681613459565b92915050565b5f6101408284031215613492576134916133a3565b5b61349c606061241c565b90505f6134ab848285016121b1565b5f8301525060206134be8482850161342f565b6020830152506101206134d384828501613468565b60408301525092915050565b5f60a082840312156134f4576134f36133a3565b5b6134fe60a061241c565b90505f61350d848285016124f8565b5f830152506020613520848285016121b1565b6020830152506040613534848285016122c9565b6040830152506060613548848285016122c9565b606083015250608061355c848285016123a2565b60808301525092915050565b5f610220828403121561357e5761357d6133a3565b5b613588608061241c565b90505f6135978482850161347c565b5f830152506101406135ab848285016123a2565b6020830152506101606135c0848285016122c9565b6040830152506101806135d5848285016134df565b60608301525092915050565b5f61022082840312156135f7576135f6612168565b5b5f61360484828501613568565b91505092915050565b5f6136178261212e565b91506136228361212e565b925082820390508181111561363a57613639612a07565b5b92915050565b5f610220820190506136545f8301846131ca565b92915050565b5f81905092915050565b5f61366e82613286565b613678818561365a565b935061368881856020860161223d565b80840191505092915050565b5f61369f8286613664565b91506136ab8285613664565b91506136b78284613664565b9150819050949350505050565b5f6136cf8284613664565b915081905092915050565b5f815190506136e88161238c565b92915050565b5f6020828403121561370357613702612168565b5b5f613710848285016136da565b91505092915050565b5f60408201905061372c5f830185612338565b6137396020830184612137565b9392505050565b5f61374a82612308565b915061375583612308565b9250828201905073ffffffffffffffffffffffffffffffffffffffff81111561378157613780612a07565b5b92915050565b50565b5f6137955f8361365a565b91506137a082613787565b5f82019050919050565b5f6137b48261378a565b9150819050919050565b5f815190506137cc8161277e565b92915050565b5f602082840312156137e7576137e6612168565b5b5f6137f4848285016137be565b9150509291505056fea264697066735822122025cb7858e9902d6bd3c6fee6dd975b353a00dc066ccdf2a45a3a4de08360fd2c64736f6c634300081e0033608060405234801561000f575f5ffd5b50604051611fd0380380611fd083398181016040528101906100319190610342565b6100435f5f1b8361007c60201b60201c565b506100747fb19546dff01e856fb3f010c267a7b1c60363cf8a4664e21cc89c26224620214e8261007c60201b60201c565b505050610380565b5f5f61008e84846100c560201b60201c565b905080156100bb576100b98360015f8781526020019081526020015f206101ba60201b90919060201c565b505b8091505092915050565b5f6100d683836101ed60201b60201c565b6101b05760015f5f8581526020019081526020015f205f015f8473ffffffffffffffffffffffffffffffffffffffff1673ffffffffffffffffffffffffffffffffffffffff1681526020019081526020015f205f6101000a81548160ff02191690831515021790555061014d61025060201b60201c565b73ffffffffffffffffffffffffffffffffffffffff168273ffffffffffffffffffffffffffffffffffffffff16847f2f8788117e7eff1d82e926ec794901d17c78024a50270940304540a733656f0d60405160405180910390a4600190506101b4565b5f90505b92915050565b5f6101e5835f018373ffffffffffffffffffffffffffffffffffffffff165f1b61025760201b60201c565b905092915050565b5f5f5f8481526020019081526020015f205f015f8373ffffffffffffffffffffffffffffffffffffffff1673ffffffffffffffffffffffffffffffffffffffff1681526020019081526020015f205f9054906101000a900460ff16905092915050565b5f33905090565b5f61026883836102c460201b60201c565b6102ba57825f0182908060018154018082558091505060019003905f5260205f20015f9091909190915055825f0180549050836001015f8481526020019081526020015f2081905550600190506102be565b5f90505b92915050565b5f5f836001015f8481526020019081526020015f20541415905092915050565b5f5ffd5b5f73ffffffffffffffffffffffffffffffffffffffff82169050919050565b5f610311826102e8565b9050919050565b61032181610307565b811461032b575f5ffd5b50565b5f8151905061033c81610318565b92915050565b5f5f60408385031215610358576103576102e4565b5b5f6103658582860161032e565b92505060206103768582860161032e565b9150509250929050565b611c438061038d5f395ff3fe608060405234801561000f575f5ffd5b5060043610610135575f3560e01c8063853b5d19116100b6578063c5df91b51161007a578063c5df91b51461036b578063ca0d535814610387578063ca15c873146103a3578063d547741f146103d3578063e58378bb146103ef578063f2fde38b1461040d57610135565b8063853b5d19146102b55780639010d07c146102d157806391d1485414610301578063a217fddf14610331578063ada8f9191461034f57610135565b80632f2ff15d116100fd5780632f2ff15d1461021557806336568abe14610231578063755e936f1461024d57806381e4c9a31461026957806384cf84e11461029957610135565b806301ffc9a7146101395780631af6c43114610169578063248a9ca3146101995780632505a3bd146101c95780632ad82eea146101f9575b5f5ffd5b610153600480360381019061014e91906113a4565b610429565b60405161016091906113e9565b60405180910390f35b610183600480360381019061017e9190611435565b6104a2565b60405161019091906113e9565b60405180910390f35b6101b360048036038101906101ae9190611435565b6104c8565b6040516101c0919061146f565b60405180910390f35b6101e360048036038101906101de91906115c4565b6104e4565b6040516101f091906113e9565b60405180910390f35b610213600480360381019061020e91906115c4565b610511565b005b61022f600480360381019061022a9190611665565b610620565b005b61024b60048036038101906102469190611665565b610642565b005b61026760048036038101906102629190611741565b6106bd565b005b610283600480360381019061027e9190611741565b6107ca565b60405161029091906113e9565b60405180910390f35b6102b360048036038101906102ae9190611435565b6107f7565b005b6102cf60048036038101906102ca9190611741565b6108ce565b005b6102eb60048036038101906102e691906117bb565b6109dd565b6040516102f89190611808565b60405180910390f35b61031b60048036038101906103169190611665565b610a09565b60405161032891906113e9565b60405180910390f35b610339610a6c565b604051610346919061146f565b60405180910390f35b61036960048036038101906103649190611821565b610a72565b005b61038560048036038101906103809190611435565b610a8d565b005b6103a1600480360381019061039c91906115c4565b610b62565b005b6103bd60048036038101906103b89190611435565b610c6f565b6040516103ca919061185b565b60405180910390f35b6103ed60048036038101906103e89190611665565b610c90565b005b6103f7610cb2565b604051610404919061146f565b60405180910390f35b61042760048036038101906104229190611821565b610cd6565b005b5f7f5a05180f000000000000000000000000000000000000000000000000000000007bffffffffffffffffffffffffffffffffffffffffffffffffffffffff1916827bffffffffffffffffffffffffffffffffffffffffffffffffffffffff1916148061049b575061049a82610d5b565b5b9050919050565b5f60035f8381526020019081526020015f205f9054906101000a900460ff169050919050565b5f5f5f8381526020019081526020015f20600101549050919050565b5f60045f838051906020012081526020019081526020015f205f9054906101000a900460ff169050919050565b7fb19546dff01e856fb3f010c267a7b1c60363cf8a4664e21cc89c26224620214e61053b81610dd4565b5f8280519060200120905060045f8281526020019081526020015f205f9054906101000a900460ff16156105a4576040517f08c379a000000000000000000000000000000000000000000000000000000000815260040161059b906118ce565b60405180910390fd5b600160045f8381526020019081526020015f205f6101000a81548160ff0219169083151502179055503373ffffffffffffffffffffffffffffffffffffffff167fcbfa55581c230aeb174d969838d927cdd297755dfb967a33134312f1377ee71d84604051610613919061193c565b60405180910390a2505050565b610629826104c8565b61063281610dd4565b61063c8383610de8565b50505050565b61064a610e2b565b73ffffffffffffffffffffffffffffffffffffffff168173ffffffffffffffffffffffffffffffffffffffff16146106ae576040517f6697b23200000000000000000000000000000000000000000000000000000000815260040160405180910390fd5b6106b88282610e32565b505050565b7fb19546dff01e856fb3f010c267a7b1c60363cf8a4664e21cc89c26224620214e6106e781610dd4565b5f8280519060200120905060025f8281526020019081526020015f205f9054906101000a900460ff1661074f576040517f08c379a0000000000000000000000000000000000000000000000000000000008152600401610746906119a6565b60405180910390fd5b5f60025f8381526020019081526020015f205f6101000a81548160ff0219169083151502179055503373ffffffffffffffffffffffffffffffffffffffff167f66e43f8252a3257fe010a4fd6ae50f57624762cc64a6eceadb04b18cfdefac7d846040516107bd9190611a16565b60405180910390a2505050565b5f60025f838051906020012081526020019081526020015f205f9054906101000a900460ff169050919050565b7fb19546dff01e856fb3f010c267a7b1c60363cf8a4664e21cc89c26224620214e61082181610dd4565b61082a826104a2565b1561086a576040517f08c379a000000000000000000000000000000000000000000000000000000000815260040161086190611a80565b60405180910390fd5b600160035f8481526020019081526020015f205f6101000a81548160ff0219169083151502179055507f010120d82c0c66b257c0ea628d405b1d3c2d37bb8dd9141f6c5c12cb0375c572826040516108c2919061146f565b60405180910390a15050565b7fb19546dff01e856fb3f010c267a7b1c60363cf8a4664e21cc89c26224620214e6108f881610dd4565b5f8280519060200120905060025f8281526020019081526020015f205f9054906101000a900460ff1615610961576040517f08c379a0000000000000000000000000000000000000000000000000000000008152600401610958906118ce565b60405180910390fd5b600160025f8381526020019081526020015f205f6101000a81548160ff0219169083151502179055503373ffffffffffffffffffffffffffffffffffffffff167f0a249d4766726d36cb6d6ac22cf998dc9fc02bb4ff9fda73ec1e3061c8a1db09846040516109d09190611a16565b60405180910390a2505050565b5f610a018260015f8681526020019081526020015f20610e7590919063ffffffff16565b905092915050565b5f5f5f8481526020019081526020015f205f015f8373ffffffffffffffffffffffffffffffffffffffff1673ffffffffffffffffffffffffffffffffffffffff1681526020019081526020015f205f9054906101000a900460ff16905092915050565b5f5f1b81565b610a7e5f5f1b82610620565b610a8a5f5f1b33610642565b50565b7fb19546dff01e856fb3f010c267a7b1c60363cf8a4664e21cc89c26224620214e610ab781610dd4565b610ac0826104a2565b610aff576040517f08c379a0000000000000000000000000000000000000000000000000000000008152600401610af690611b0e565b60405180910390fd5b5f60035f8481526020019081526020015f205f6101000a81548160ff0219169083151502179055507f4072861add20da436ef0a8274b90d102aea17b603f972cc8196d51f1a5d5617982604051610b56919061146f565b60405180910390a15050565b7fb19546dff01e856fb3f010c267a7b1c60363cf8a4664e21cc89c26224620214e610b8c81610dd4565b5f8280519060200120905060045f8281526020019081526020015f205f9054906101000a900460ff16610bf4576040517f08c379a0000000000000000000000000000000000000000000000000000000008152600401610beb906119a6565b60405180910390fd5b5f60045f8381526020019081526020015f205f6101000a81548160ff0219169083151502179055503373ffffffffffffffffffffffffffffffffffffffff167f69c40cdda8ad6e074bf320a4a76804a6652eb5231bda91b690dcb98010b2707984604051610c62919061193c565b60405180910390a2505050565b5f610c8960015f8481526020019081526020015f20610e8c565b9050919050565b610c99826104c8565b610ca281610dd4565b610cac8383610e32565b50505050565b7fb19546dff01e856fb3f010c267a7b1c60363cf8a4664e21cc89c26224620214e81565b5f610d017fb19546dff01e856fb3f010c267a7b1c60363cf8a4664e21cc89c26224620214e5f6109dd565b9050610d2d7fb19546dff01e856fb3f010c267a7b1c60363cf8a4664e21cc89c26224620214e82610c90565b610d577fb19546dff01e856fb3f010c267a7b1c60363cf8a4664e21cc89c26224620214e83610620565b5050565b5f7f7965db0b000000000000000000000000000000000000000000000000000000007bffffffffffffffffffffffffffffffffffffffffffffffffffffffff1916827bffffffffffffffffffffffffffffffffffffffffffffffffffffffff19161480610dcd5750610dcc82610e9f565b5b9050919050565b610de581610de0610e2b565b610f08565b50565b5f5f610df48484610f59565b90508015610e2157610e1f8360015f8781526020019081526020015f2061104290919063ffffffff16565b505b8091505092915050565b5f33905090565b5f5f610e3e848461106f565b90508015610e6b57610e698360015f8781526020019081526020015f2061115890919063ffffffff16565b505b8091505092915050565b5f610e82835f0183611185565b5f1c905092915050565b5f610e98825f016111ac565b9050919050565b5f7f01ffc9a7000000000000000000000000000000000000000000000000000000007bffffffffffffffffffffffffffffffffffffffffffffffffffffffff1916827bffffffffffffffffffffffffffffffffffffffffffffffffffffffff1916149050919050565b610f128282610a09565b610f555780826040517fe2517d3f000000000000000000000000000000000000000000000000000000008152600401610f4c929190611b2c565b60405180910390fd5b5050565b5f610f648383610a09565b6110385760015f5f8581526020019081526020015f205f015f8473ffffffffffffffffffffffffffffffffffffffff1673ffffffffffffffffffffffffffffffffffffffff1681526020019081526020015f205f6101000a81548160ff021916908315150217905550610fd5610e2b565b73ffffffffffffffffffffffffffffffffffffffff168273ffffffffffffffffffffffffffffffffffffffff16847f2f8788117e7eff1d82e926ec794901d17c78024a50270940304540a733656f0d60405160405180910390a46001905061103c565b5f90505b92915050565b5f611067835f018373ffffffffffffffffffffffffffffffffffffffff165f1b6111bb565b905092915050565b5f61107a8383610a09565b1561114e575f5f5f8581526020019081526020015f205f015f8473ffffffffffffffffffffffffffffffffffffffff1673ffffffffffffffffffffffffffffffffffffffff1681526020019081526020015f205f6101000a81548160ff0219169083151502179055506110eb610e2b565b73ffffffffffffffffffffffffffffffffffffffff168273ffffffffffffffffffffffffffffffffffffffff16847ff6391f5c32d9c69d2a47ea670b442974b53935d1edc7fd64eb21e047a839171b60405160405180910390a460019050611152565b5f90505b92915050565b5f61117d835f018373ffffffffffffffffffffffffffffffffffffffff165f1b611222565b905092915050565b5f825f01828154811061119b5761119a611b53565b5b905f5260205f200154905092915050565b5f815f01805490509050919050565b5f6111c6838361131e565b61121857825f0182908060018154018082558091505060019003905f5260205f20015f9091909190915055825f0180549050836001015f8481526020019081526020015f20819055506001905061121c565b5f90505b92915050565b5f5f836001015f8481526020019081526020015f205490505f8114611313575f60018261124f9190611bad565b90505f6001865f01805490506112659190611bad565b90508082146112cb575f865f01828154811061128457611283611b53565b5b905f5260205f200154905080875f0184815481106112a5576112a4611b53565b5b905f5260205f20018190555083876001015f8381526020019081526020015f2081905550505b855f018054806112de576112dd611be0565b5b600190038181905f5260205f20015f90559055856001015f8681526020019081526020015f205f905560019350505050611318565b5f9150505b92915050565b5f5f836001015f8481526020019081526020015f20541415905092915050565b5f604051905090565b5f5ffd5b5f5ffd5b5f7fffffffff0000000000000000000000000000000000000000000000000000000082169050919050565b6113838161134f565b811461138d575f5ffd5b50565b5f8135905061139e8161137a565b92915050565b5f602082840312156113b9576113b8611347565b5b5f6113c684828501611390565b91505092915050565b5f8115159050919050565b6113e3816113cf565b82525050565b5f6020820190506113fc5f8301846113da565b92915050565b5f819050919050565b61141481611402565b811461141e575f5ffd5b50565b5f8135905061142f8161140b565b92915050565b5f6020828403121561144a57611449611347565b5b5f61145784828501611421565b91505092915050565b61146981611402565b82525050565b5f6020820190506114825f830184611460565b92915050565b5f5ffd5b5f5ffd5b5f601f19601f8301169050919050565b7f4e487b71000000000000000000000000000000000000000000000000000000005f52604160045260245ffd5b6114d682611490565b810181811067ffffffffffffffff821117156114f5576114f46114a0565b5b80604052505050565b5f61150761133e565b905061151382826114cd565b919050565b5f67ffffffffffffffff821115611532576115316114a0565b5b61153b82611490565b9050602081019050919050565b828183375f83830152505050565b5f61156861156384611518565b6114fe565b9050828152602081018484840111156115845761158361148c565b5b61158f848285611548565b509392505050565b5f82601f8301126115ab576115aa611488565b5b81356115bb848260208601611556565b91505092915050565b5f602082840312156115d9576115d8611347565b5b5f82013567ffffffffffffffff8111156115f6576115f561134b565b5b61160284828501611597565b91505092915050565b5f73ffffffffffffffffffffffffffffffffffffffff82169050919050565b5f6116348261160b565b9050919050565b6116448161162a565b811461164e575f5ffd5b50565b5f8135905061165f8161163b565b92915050565b5f5f6040838503121561167b5761167a611347565b5b5f61168885828601611421565b925050602061169985828601611651565b9150509250929050565b5f67ffffffffffffffff8211156116bd576116bc6114a0565b5b6116c682611490565b9050602081019050919050565b5f6116e56116e0846116a3565b6114fe565b9050828152602081018484840111156117015761170061148c565b5b61170c848285611548565b509392505050565b5f82601f83011261172857611727611488565b5b81356117388482602086016116d3565b91505092915050565b5f6020828403121561175657611755611347565b5b5f82013567ffffffffffffffff8111156117735761177261134b565b5b61177f84828501611714565b91505092915050565b5f819050919050565b61179a81611788565b81146117a4575f5ffd5b50565b5f813590506117b581611791565b92915050565b5f5f604083850312156117d1576117d0611347565b5b5f6117de85828601611421565b92505060206117ef858286016117a7565b9150509250929050565b6118028161162a565b82525050565b5f60208201905061181b5f8301846117f9565b92915050565b5f6020828403121561183657611835611347565b5b5f61184384828501611651565b91505092915050565b61185581611788565b82525050565b5f60208201905061186e5f83018461184c565b92915050565b5f82825260208201905092915050565b7f4b657920697320616c72656164792076616c69640000000000000000000000005f82015250565b5f6118b8601483611874565b91506118c382611884565b602082019050919050565b5f6020820190508181035f8301526118e5816118ac565b9050919050565b5f81519050919050565b8281835e5f83830152505050565b5f61190e826118ec565b6119188185611874565b93506119288185602086016118f6565b61193181611490565b840191505092915050565b5f6020820190508181035f8301526119548184611904565b905092915050565b7f43616e6e6f74207265766f6b6520696e76616c6964206b6579000000000000005f82015250565b5f611990601983611874565b915061199b8261195c565b602082019050919050565b5f6020820190508181035f8301526119bd81611984565b9050919050565b5f81519050919050565b5f82825260208201905092915050565b5f6119e8826119c4565b6119f281856119ce565b9350611a028185602086016118f6565b611a0b81611490565b840191505092915050565b5f6020820190508181035f830152611a2e81846119de565b905092915050565b7f496d616765494420697320616c726561647920737570706f72746564000000005f82015250565b5f611a6a601c83611874565b9150611a7582611a36565b602082019050919050565b5f6020820190508181035f830152611a9781611a5e565b9050919050565b7f43616e6e6f74207265766f6b6520756e737570706f7274656420496d616765495f8201527f4400000000000000000000000000000000000000000000000000000000000000602082015250565b5f611af8602183611874565b9150611b0382611a9e565b604082019050919050565b5f6020820190508181035f830152611b2581611aec565b9050919050565b5f604082019050611b3f5f8301856117f9565b611b4c6020830184611460565b9392505050565b7f4e487b71000000000000000000000000000000000000000000000000000000005f52603260045260245ffd5b7f4e487b71000000000000000000000000000000000000000000000000000000005f52601160045260245ffd5b5f611bb782611788565b9150611bc283611788565b9250828203905081811115611bda57611bd9611b80565b5b92915050565b7f4e487b71000000000000000000000000000000000000000000000000000000005f52603160045260245ffdfea2646970667358221220e0c580d4dd40dc8c403a5e1a037b5aac1e83dc1b0e0a638005edc21f4fe48df064736f6c634300081e003360e060405234801561000f575f5ffd5b506040516126ac3803806126ac8339818101604052810190610031919061022d565b808073ffffffffffffffffffffffffffffffffffffffff1660c08173ffffffffffffffffffffffffffffffffffffffff16815250505061007561014960201b60201c565b156100ac576040517f7a47c9a200000000000000000000000000000000000000000000000000000000815260040160405180910390fd5b63deafbeef60e01b6040516100c0906101b1565b6100ca9190610292565b604051809103905ff0801580156100e3573d5f5f3e3d5ffd5b5073ffffffffffffffffffffffffffffffffffffffff1660a08173ffffffffffffffffffffffffffffffffffffffff168152505060018081111561012a576101296102ab565b5b608081600181111561013f5761013e6102ab565b5b81525050506102d8565b5f60014614806101595750600a46145b806101645750608946145b80610170575061014446145b8061017c57506101e046145b80610188575061210546145b80610194575061a4b146145b806101a0575061a4ba46145b806101ac575061e70846145b905090565b610ffb806116b183390190565b5f5ffd5b5f73ffffffffffffffffffffffffffffffffffffffff82169050919050565b5f6101eb826101c2565b9050919050565b5f6101fc826101e1565b9050919050565b61020c816101f2565b8114610216575f5ffd5b50565b5f8151905061022781610203565b92915050565b5f60208284031215610242576102416101be565b5b5f61024f84828501610219565b91505092915050565b5f7fffffffff0000000000000000000000000000000000000000000000000000000082169050919050565b61028c81610258565b82525050565b5f6020820190506102a55f830184610283565b92915050565b7f4e487b71000000000000000000000000000000000000000000000000000000005f52602160045260245ffd5b60805160a05160c05161139461031d5f395f818161011401528181610240015261053401525f818160ef015261019201525f818161013a015261026401526113945ff3fe608060405234801561000f575f5ffd5b5060043610610055575f3560e01c806308c84e70146100595780633fd66f22146100775780639a44ea8414610095578063c4fa74e5146100b3578063f4cbae94146100cf575b5f5ffd5b6100616100ed565b60405161006e9190610747565b60405180910390f35b61007f610111565b60405161008c9190610780565b60405180910390f35b61009d610138565b6040516100aa919061080c565b60405180910390f35b6100cd60048036038101906100c89190610918565b61015c565b005b6100d761023e565b6040516100e49190610780565b60405180910390f35b7f000000000000000000000000000000000000000000000000000000000000000081565b5f7f0000000000000000000000000000000000000000000000000000000000000000905090565b7f000000000000000000000000000000000000000000000000000000000000000081565b610175848036038101906101709190610c7d565b610262565b610190848036038101906101899190610c7d565b83836102f6565b7f000000000000000000000000000000000000000000000000000000000000000073ffffffffffffffffffffffffffffffffffffffff1663ab750e756101e7865f018036038101906101e29190610ca9565b610612565b866101400135866040518463ffffffff1660e01b815260040161020c93929190610d44565b5f6040518083038186803b158015610222575f5ffd5b505afa158015610234573d5f5f3e3d5ffd5b5050505050505050565b7f000000000000000000000000000000000000000000000000000000000000000081565b7f0000000000000000000000000000000000000000000000000000000000000000600181111561029557610294610799565b5b6102a1825f01516106c0565b60018111156102b3576102b2610799565b5b146102f3576040517f08c379a00000000000000000000000000000000000000000000000000000000081526004016102ea90610dda565b60405180910390fd5b50565b8173ffffffffffffffffffffffffffffffffffffffff1683606001515f015173ffffffffffffffffffffffffffffffffffffffff161461036b576040517f08c379a000000000000000000000000000000000000000000000000000000000815260040161036290610e42565b60405180910390fd5b807bffffffffffffffffffffffffffffffffffffffffffffffffffffffff19168360600151602001517bffffffffffffffffffffffffffffffffffffffffffffffffffffffff1916146103f3576040517f08c379a00000000000000000000000000000000000000000000000000000000081526004016103ea90610eaa565b60405180910390fd5b468360600151604001511461043d576040517f08c379a000000000000000000000000000000000000000000000000000000000815260040161043490610f12565b60405180910390fd5b4383606001516060015110610487576040517f08c379a000000000000000000000000000000000000000000000000000000000815260040161047e90610fa0565b60405180910390fd5b4361010084606001516060015161049e9190610feb565b10156104df576040517f08c379a00000000000000000000000000000000000000000000000000000000081526004016104d69061108e565b60405180910390fd5b8260600151606001514083606001516080015114610532576040517f08c379a0000000000000000000000000000000000000000000000000000000008152600401610529906110f6565b60405180910390fd5b7f000000000000000000000000000000000000000000000000000000000000000073ffffffffffffffffffffffffffffffffffffffff16631af6c43184602001516040518263ffffffff1660e01b815260040161058f9190611114565b602060405180830381865afa1580156105aa573d5f5f3e3d5ffd5b505050506040513d601f19601f820116820180604052508101906105ce9190611162565b61060d576040517f08c379a0000000000000000000000000000000000000000000000000000000008152600401610604906111d7565b60405180910390fd5b505050565b606060018081111561062757610626610799565b5b8260400151600181111561063e5761063d610799565b5b0361068f575f82602001515f6008811061065b5761065a6111f5565b5b60200201519050825f015181604051602001610678929190611262565b6040516020818303038152906040529150506106bb565b815f015182602001516040516020016106a9929190611332565b60405160208183030381529060405290505b919050565b5f81604001519050919050565b5f73ffffffffffffffffffffffffffffffffffffffff82169050919050565b5f819050919050565b5f61070f61070a610705846106cd565b6106ec565b6106cd565b9050919050565b5f610720826106f5565b9050919050565b5f61073182610716565b9050919050565b61074181610727565b82525050565b5f60208201905061075a5f830184610738565b92915050565b5f61076a82610716565b9050919050565b61077a81610760565b82525050565b5f6020820190506107935f830184610771565b92915050565b7f4e487b71000000000000000000000000000000000000000000000000000000005f52602160045260245ffd5b600281106107d7576107d6610799565b5b50565b5f8190506107e7826107c6565b919050565b5f6107f6826107da565b9050919050565b610806816107ec565b82525050565b5f60208201905061081f5f8301846107fd565b92915050565b5f604051905090565b5f5ffd5b5f5ffd5b5f610220828403121561084c5761084b610832565b5b81905092915050565b5f819050919050565b61086781610855565b8114610871575f5ffd5b50565b5f813590506108828161085e565b92915050565b5f610892826106cd565b9050919050565b6108a281610888565b81146108ac575f5ffd5b50565b5f813590506108bd81610899565b92915050565b5f7fffffffff0000000000000000000000000000000000000000000000000000000082169050919050565b6108f7816108c3565b8114610901575f5ffd5b50565b5f81359050610912816108ee565b92915050565b5f5f5f5f61028085870312156109315761093061082e565b5b5f61093e87828801610836565b94505061022061095087828801610874565b935050610240610962878288016108af565b92505061026061097487828801610904565b91505092959194509250565b5f5ffd5b5f601f19601f8301169050919050565b7f4e487b71000000000000000000000000000000000000000000000000000000005f52604160045260245ffd5b6109ca82610984565b810181811067ffffffffffffffff821117156109e9576109e8610994565b5b80604052505050565b5f6109fb610825565b9050610a0782826109c1565b919050565b5f5ffd5b5f67ffffffffffffffff821115610a2a57610a29610994565b5b602082029050919050565b5f5ffd5b5f610a4b610a4684610a10565b6109f2565b90508060208402830185811115610a6557610a64610a35565b5b835b81811015610a8e5780610a7a8882610874565b845260208401935050602081019050610a67565b5050509392505050565b5f82601f830112610aac57610aab610a0c565b5b6008610ab9848285610a39565b91505092915050565b60028110610ace575f5ffd5b50565b5f81359050610adf81610ac2565b92915050565b5f6101408284031215610afb57610afa610980565b5b610b0560606109f2565b90505f610b1484828501610904565b5f830152506020610b2784828501610a98565b602083015250610120610b3c84828501610ad1565b60408301525092915050565b5f819050919050565b610b5a81610b48565b8114610b64575f5ffd5b50565b5f81359050610b7581610b51565b92915050565b5f60a08284031215610b9057610b8f610980565b5b610b9a60a06109f2565b90505f610ba9848285016108af565b5f830152506020610bbc84828501610904565b6020830152506040610bd084828501610b67565b6040830152506060610be484828501610b67565b6060830152506080610bf884828501610874565b60808301525092915050565b5f6102208284031215610c1a57610c19610980565b5b610c2460806109f2565b90505f610c3384828501610ae5565b5f83015250610140610c4784828501610874565b602083015250610160610c5c84828501610b67565b604083015250610180610c7184828501610b7b565b60608301525092915050565b5f6102208284031215610c9357610c9261082e565b5b5f610ca084828501610c04565b91505092915050565b5f6101408284031215610cbf57610cbe61082e565b5b5f610ccc84828501610ae5565b91505092915050565b5f81519050919050565b5f82825260208201905092915050565b8281835e5f83830152505050565b5f610d0782610cd5565b610d118185610cdf565b9350610d21818560208601610cef565b610d2a81610984565b840191505092915050565b610d3e81610855565b82525050565b5f6060820190508181035f830152610d5c8186610cfd565b9050610d6b6020830185610d35565b610d786040830184610d35565b949350505050565b5f82825260208201905092915050565b7f496e76616c69642070726f6f66206d6f646500000000000000000000000000005f82015250565b5f610dc4601283610d80565b9150610dcf82610d90565b602082019050919050565b5f6020820190508181035f830152610df181610db8565b9050919050565b7f496e76616c69642070726f7665720000000000000000000000000000000000005f82015250565b5f610e2c600e83610d80565b9150610e3782610df8565b602082019050919050565b5f6020820190508181035f830152610e5981610e20565b9050919050565b7f496e76616c69642073656c6563746f72000000000000000000000000000000005f82015250565b5f610e94601083610d80565b9150610e9f82610e60565b602082019050919050565b5f6020820190508181035f830152610ec181610e88565b9050919050565b7f496e76616c696420636861696e206964000000000000000000000000000000005f82015250565b5f610efc601083610d80565b9150610f0782610ec8565b602082019050919050565b5f6020820190508181035f830152610f2981610ef0565b9050919050565b7f496e76616c696420626c6f636b206e756d6265723a20626c6f636b2066726f6d5f8201527f2066757475726500000000000000000000000000000000000000000000000000602082015250565b5f610f8a602783610d80565b9150610f9582610f30565b604082019050919050565b5f6020820190508181035f830152610fb781610f7e565b9050919050565b7f4e487b71000000000000000000000000000000000000000000000000000000005f52601160045260245ffd5b5f610ff582610b48565b915061100083610b48565b925082820190508082111561101857611017610fbe565b5b92915050565b7f496e76616c696420626c6f636b206e756d6265723a20626c6f636b20746f6f205f8201527f6f6c640000000000000000000000000000000000000000000000000000000000602082015250565b5f611078602383610d80565b91506110838261101e565b604082019050919050565b5f6020820190508181035f8301526110a58161106c565b9050919050565b7f496e76616c696420626c6f636b206861736800000000000000000000000000005f82015250565b5f6110e0601283610d80565b91506110eb826110ac565b602082019050919050565b5f6020820190508181035f83015261110d816110d4565b9050919050565b5f6020820190506111275f830184610d35565b92915050565b5f8115159050919050565b6111418161112d565b811461114b575f5ffd5b50565b5f8151905061115c81611138565b92915050565b5f602082840312156111775761117661082e565b5b5f6111848482850161114e565b91505092915050565b7f556e737570706f727465642043616c6c477565737449640000000000000000005f82015250565b5f6111c1601783610d80565b91506111cc8261118d565b602082019050919050565b5f6020820190508181035f8301526111ee816111b5565b9050919050565b7f4e487b71000000000000000000000000000000000000000000000000000000005f52603260045260245ffd5b5f819050919050565b61123c611237826108c3565b611222565b82525050565b5f819050919050565b61125c61125782610855565b611242565b82525050565b5f61126d828561122b565b60048201915061127d828461124b565b6020820191508190509392505050565b5f60089050919050565b5f81905092915050565b5f819050919050565b6112b381610855565b82525050565b5f6112c483836112aa565b60208301905092915050565b5f602082019050919050565b6112e58161128d565b6112ef8184611297565b92506112fa826112a1565b805f5b8381101561132a57815161131187826112b9565b965061131c836112d0565b9250506001810190506112fd565b505050505050565b5f61133d828561122b565b60048201915061134d82846112dc565b61010082019150819050939250505056fea2646970667358221220daa8ece0759497fcdd4dd0c86ab75afbeff8790695820bfd0b37162fd9ca9e1964736f6c634300081e003360a060405234801561000f575f5ffd5b50604051610ffb380380610ffb833981810160405281019061003191906100d6565b807bffffffffffffffffffffffffffffffffffffffffffffffffffffffff19166080817bffffffffffffffffffffffffffffffffffffffffffffffffffffffff19168152505050610101565b5f5ffd5b5f7fffffffff0000000000000000000000000000000000000000000000000000000082169050919050565b6100b581610081565b81146100bf575f5ffd5b50565b5f815190506100d0816100ac565b92915050565b5f602082840312156100eb576100ea61007d565b5b5f6100f8848285016100c2565b91505092915050565b608051610ecd61012e5f395f8181610111015281816101670152818161024201526102a50152610ecd5ff3fe608060405234801561000f575f5ffd5b5060043610610055575f3560e01c8063053c238d146100595780631599ead5146100775780633a115bb11461009357806366cf0e4b146100c3578063ab750e75146100f3575b5f5ffd5b61006161010f565b60405161006e91906106d2565b60405180910390f35b610091600480360381019061008c9190610715565b610133565b005b6100ad60048036038101906100a8919061078f565b610152565b6040516100ba9190610873565b60405180910390f35b6100dd60048036038101906100d89190610893565b6101b7565b6040516100ea9190610873565b60405180910390f35b61010d60048036038101906101089190610932565b6101e1565b005b7f000000000000000000000000000000000000000000000000000000000000000081565b61014f81805f019061014591906109af565b8360200135610203565b50565b61015a610621565b60405180604001604052807f000000000000000000000000000000000000000000000000000000000000000084604051602001610198929190610a51565b6040516020818303038152906040528152602001838152509050919050565b6101bf610621565b6101d96101d46101cf858561038d565b61042f565b610152565b905092915050565b6101fd84846101f86101f3868661038d565b61042f565b610203565b50505050565b82825f9060049261021693929190610a84565b906102219190610ad4565b7bffffffffffffffffffffffffffffffffffffffffffffffffffffffff19167f00000000000000000000000000000000000000000000000000000000000000007bffffffffffffffffffffffffffffffffffffffffffffffffffffffff1916146103015782825f9060049261029893929190610a84565b906102a39190610ad4565b7f00000000000000000000000000000000000000000000000000000000000000006040517fb8b38d4c0000000000000000000000000000000000000000000000000000000081526004016102f8929190610b32565b60405180910390fd5b806040516020016103129190610b59565b604051602081830303815290604052805190602001208383600490809261033b93929190610a84565b604051610349929190610baf565b604051809103902014610388576040517f439cc0cd00000000000000000000000000000000000000000000000000000000815260040160405180910390fd5b505050565b61039561063a565b6040518060a001604052808481526020017fa3acc27117418996340b84e5a90f3ef4c49d22c79e44aad822ec9c313e1eb8e25f1b815260200160405180604001604052805f60028111156103ec576103eb610bc7565b5b81526020015f60ff1681525081526020015f5f1b815260200161042460405180604001604052808681526020015f5f1b81525061054c565b815250905092915050565b5f60028060405161043f90610c3e565b602060405180830381855afa15801561045a573d5f5f3e3d5ffd5b5050506040513d601f19601f8201168201806040525081019061047d9190610c66565b8360600151845f015185602001518660800151601888604001515f015160028111156104ac576104ab610bc7565b5b63ffffffff16901b601889604001516020015160ff1663ffffffff16901b6008600461ffff16901b6040516020016104eb989796959493929190610d15565b6040516020818303038152906040526040516105079190610dd6565b602060405180830381855afa158015610522573d5f5f3e3d5ffd5b5050506040513d601f19601f820116820180604052508101906105459190610c66565b9050919050565b5f60028060405161055c90610e36565b602060405180830381855afa158015610577573d5f5f3e3d5ffd5b5050506040513d601f19601f8201168201806040525081019061059a9190610c66565b835f015184602001516008600261ffff16901b6040516020016105c09493929190610e4a565b6040516020818303038152906040526040516105dc9190610dd6565b602060405180830381855afa1580156105f7573d5f5f3e3d5ffd5b5050506040513d601f19601f8201168201806040525081019061061a9190610c66565b9050919050565b6040518060400160405280606081526020015f81525090565b6040518060a001604052805f81526020015f815260200161065961066b565b81526020015f81526020015f81525090565b60405180604001604052805f600281111561068957610688610bc7565b5b81526020015f60ff1681525090565b5f7fffffffff0000000000000000000000000000000000000000000000000000000082169050919050565b6106cc81610698565b82525050565b5f6020820190506106e55f8301846106c3565b92915050565b5f5ffd5b5f5ffd5b5f5ffd5b5f6040828403121561070c5761070b6106f3565b5b81905092915050565b5f6020828403121561072a576107296106eb565b5b5f82013567ffffffffffffffff811115610747576107466106ef565b5b610753848285016106f7565b91505092915050565b5f819050919050565b61076e8161075c565b8114610778575f5ffd5b50565b5f8135905061078981610765565b92915050565b5f602082840312156107a4576107a36106eb565b5b5f6107b18482850161077b565b91505092915050565b5f81519050919050565b5f82825260208201905092915050565b8281835e5f83830152505050565b5f601f19601f8301169050919050565b5f6107fc826107ba565b61080681856107c4565b93506108168185602086016107d4565b61081f816107e2565b840191505092915050565b6108338161075c565b82525050565b5f604083015f8301518482035f86015261085382826107f2565b9150506020830151610868602086018261082a565b508091505092915050565b5f6020820190508181035f83015261088b8184610839565b905092915050565b5f5f604083850312156108a9576108a86106eb565b5b5f6108b68582860161077b565b92505060206108c78582860161077b565b9150509250929050565b5f5ffd5b5f5ffd5b5f5ffd5b5f5f83601f8401126108f2576108f16108d1565b5b8235905067ffffffffffffffff81111561090f5761090e6108d5565b5b60208301915083600182028301111561092b5761092a6108d9565b5b9250929050565b5f5f5f5f6060858703121561094a576109496106eb565b5b5f85013567ffffffffffffffff811115610967576109666106ef565b5b610973878288016108dd565b945094505060206109868782880161077b565b92505060406109978782880161077b565b91505092959194509250565b5f5ffd5b5f5ffd5b5f5ffd5b5f5f833560016020038436030381126109cb576109ca6109a3565b5b80840192508235915067ffffffffffffffff8211156109ed576109ec6109a7565b5b602083019250600182023603831315610a0957610a086109ab565b5b509250929050565b5f819050919050565b610a2b610a2682610698565b610a11565b82525050565b5f819050919050565b610a4b610a468261075c565b610a31565b82525050565b5f610a5c8285610a1a565b600482019150610a6c8284610a3a565b6020820191508190509392505050565b5f5ffd5b5f5ffd5b5f5f85851115610a9757610a96610a7c565b5b83861115610aa857610aa7610a80565b5b6001850283019150848603905094509492505050565b5f82905092915050565b5f82821b905092915050565b5f610adf8383610abe565b82610aea8135610698565b92506004821015610b2a57610b257fffffffff0000000000000000000000000000000000000000000000000000000083600403600802610ac8565b831692505b505092915050565b5f604082019050610b455f8301856106c3565b610b5260208301846106c3565b9392505050565b5f610b648284610a3a565b60208201915081905092915050565b5f81905092915050565b828183375f83830152505050565b5f610b968385610b73565b9350610ba3838584610b7d565b82840190509392505050565b5f610bbb828486610b8b565b91508190509392505050565b7f4e487b71000000000000000000000000000000000000000000000000000000005f52602160045260245ffd5b7f72697363302e52656365697074436c61696d00000000000000000000000000005f82015250565b5f610c28601283610b73565b9150610c3382610bf4565b601282019050919050565b5f610c4882610c1c565b9150819050919050565b5f81519050610c6081610765565b92915050565b5f60208284031215610c7b57610c7a6106eb565b5b5f610c8884828501610c52565b91505092915050565b5f63ffffffff82169050919050565b5f8160e01b9050919050565b5f610cb682610ca0565b9050919050565b610cce610cc982610c91565b610cac565b82525050565b5f61ffff82169050919050565b5f8160f01b9050919050565b5f610cf782610ce1565b9050919050565b610d0f610d0a82610cd4565b610ced565b82525050565b5f610d20828b610a3a565b602082019150610d30828a610a3a565b602082019150610d408289610a3a565b602082019150610d508288610a3a565b602082019150610d608287610a3a565b602082019150610d708286610cbd565b600482019150610d808285610cbd565b600482019150610d908284610cfe565b6002820191508190509998505050505050505050565b5f610db0826107ba565b610dba8185610b73565b9350610dca8185602086016107d4565b80840191505092915050565b5f610de18284610da6565b915081905092915050565b7f72697363302e4f757470757400000000000000000000000000000000000000005f82015250565b5f610e20600c83610b73565b9150610e2b82610dec565b600c82019050919050565b5f610e4082610e14565b9150819050919050565b5f610e558287610a3a565b602082019150610e658286610a3a565b602082019150610e758285610a3a565b602082019150610e858284610cfe565b6002820191508190509594505050505056fea2646970667358221220e19dc3de5e4633acb4a40fb09c3e46e46a48f1d27e0d8103f66d85a5d1618aaa64736f6c634300081e0033","linkReferences":{}},"methodIdentifiers":{"_setTestVerifier(address)":"9b8b30c8","approve(address,uint256)":"095ea7b3","balanceOf(address)":"70a08231","currentTokenId()":"009a9b7b","getApproved(uint256)":"081812fc","getEmailContent(uint256)":"6b6fe90a","isApprovedForAll(address,address)":"e985e9c5","name()":"06fdde03","ownerOf(uint256)":"6352211e","prover()":"32a8f30f","safeTransferFrom(address,address,uint256)":"42842e0e","safeTransferFrom(address,address,uint256,bytes)":"b88d4fde","setApprovalForAll(address,bool)":"a22cb465","supportsInterface(bytes4)":"01ffc9a7","symbol()":"95d89b41","takenEmailHashes(bytes32)":"5889d3ea","tokenIdToEmailContent(uint256)":"b352ca0f","tokenIdToMetadataUri(uint256)":"e9997c52","tokenURI(uint256)":"c87b56dd","transferFrom(address,address,uint256)":"23b872dd","verifier()":"2b7ac3f3","verify(((bytes4,bytes32[8],uint8),bytes32,uint256,(address,bytes4,uint256,uint256,bytes32)),bytes32,string,address,string)":"0950687f"},"id":69}